:020000040800F2
:10000000F048002005030008F328000867250008D1
:10001000F1280008191000088530000800000000D1
:100020000000000000000000000000004502000881
:10003000E510000800000000A1020008C52A000821
:100040001F0300081F0300081F0300081F03000808
:100050001F0300081F0300081F0300081F030008F8
:100060001F0300081F0300081F0300081F030008E8
:100070001D1000081F0300081F0300081F030008CD
:1000800029100008351000081F0300081F0300088E
:100090001F0300081F0300081F0300081F030008B8
:1000A0001F0300087D2B00081F0300081F03000822
:1000B0001F0300081F0300081F0300081F03000898
:1000C0001F0300081F0300081F0300081F03000888
:1000D0001F0300081F030008793000081F030008F1
:1000E0001F0300081F0300081F0300081F03000868
:1000F0001F0300081F0300081F0300081F03000858
:100100001F0300081F0300081F0300081F03000847
:100110001F0300081F0300081F0300081F03000837
:100120001F0300081F0300081F0300081F03000827
:100130001F0300081F0300081F0300081F03000817
:100140001F0300081F0300081F0300081F03000807
:100150001F0300081F0300081F0300081F030008F7
:100160001F0300081F0300081F0300081F030008E7
:100170001F0300081F0300081F0300080000000001
:100180001F0300081F03000800F002F800F04AF8FF
:100190000AA090E8000C82448344AAF10107DA45E2
:1001A00001D100F03FF8AFF2090EBAE80F0013F0EA
:1001B000010F18BFFB1A43F00103184790500000CD
:1001C000B0500000103A24BF78C878C1FAD852075E
:1001D00024BF30C830C144BF04680C6070470000C1
:1001E0000023002400250026103A28BF78C1FBD840
:1001F000520728BF30C148BF0B607047752900F017
:100200005581002070471FB504F097FF00F0B4FE41
:1002100004000020002104F047FC401C60601FBD6A
:1002200010B510BD00F070FE1146FFF7ECFF03F0B3
:10023000F1FB00F097FE03B4FFF7F2FF03BC00F000
:100240009FFE00002C4B19680868B0E8F04F80F35F
:100250000988BFF36F8F4FF0000080F3118870475B
:100260000000000008480068006880F308884FF02C
:10027000000080F3148862B661B6BFF34F8FBFF3FE
:100280006F8F00DF00BF00BF08ED00E0DFF80C005B
:10029000016841F470010160704700BF88ED00E023
:1002A000EFF30980BFF36F8F134B1A681EF0100F26
:1002B00008BF20ED108A20E9F04F106009B44FF01C
:1002C000500080F31188BFF34F8FBFF36F8F04F09E
:1002D00023FA4FF0000080F3118809BC1968086800
:1002E000B0E8F04F1EF0100F08BFB0EC108A80F39A
:1002F0000988BFF36F8F704714000020EFF305806B
:10030000704700000948804709480047FEE7FEE7BC
:10031000FEE7FEE7FEE7FEE7FEE7FEE7FEE7FEE7B5
:1003200004480549054A064B704700006D2B00083C
:1003300089010008F0420020F0480020F04400202D
:10034000F044002053EA020C00F069802DE9F04BE4
:100350004FF00006002B1FBFB3FA83F503FA05F434
:1003600024FA05F65E4012BF1643B2FA82F502FA8D
:1003700005F4C5F120051EBF22FA05FC44EA0C0471
:10038000203556EA044C4FEA144418BF641C4FF061
:1003900000084FF00009904271EB030C39D300299B
:1003A00019BFB1FA81F701FA07F6B0FA80F700FA3F
:1003B00007F6C7F120071EBF20FA07FC46EA0C0625
:1003C0002037B6FBF4FCA7EB0507103F07F01F0B27
:1003D000CBF120060CFA0BFB2CFA06F644BFB34611
:1003E0000026202FA4BF5E464FF0000B5BEA060CF0
:1003F00008BF4FF0010B19EB0B09ABFB027C48EB7C
:100400000608C01B06FB02CC0BFB03CC71EB0C01F6
:10041000C1E70B46024641464846BDE8F08B13B59E
:100420004FF000004FF00001AFF30080BDE81C402A
:10043000704700000FB41CB5074B06AA7B44694601
:100440000090059800F037FB0020694600F046FB5D
:100450001CBC5DF814FB00009D06000070B504464E
:1004600085690068C10601D5302600E02026C00756
:1004700007D070BDD4E9012130469047206A401C66
:1004800020626D1EF6D570BD70B504468569007892
:10049000C00707D170BDD4E9012120209047206A10
:1004A000401C20626D1EF6D570BD00002DE9F041A4
:1004B0000646002410687529314616A510D0AFF302
:1004C0000080002802DA404213A507E031688A075D
:1004D00001D512A502E0490704D511A5012401E0C8
:1004E000AFF3008000210A2206F1240709E0B0FBE7
:1004F000F2FCB0FBF2F302FB1C00303078541846DB
:10050000491C0028F3D123462A463046BDE8F04175
:1005100000F073BA000000002D0000002B00000066
:10052000200000002DE9F05F894604464FF0000AE4
:10053000DFF824B1FB44C0F820A02046E1688847DA
:1005400000287DD0252806D0D4E901219047206AD3
:10055000401C2062F1E700255F462046E16888479D
:100560002028064607DB312E05D2B81910F8200CDA
:1005700008B10543F1E7A80701D525F00405C4F843
:100580001CA00027C4F818A02A2E09D0304603F07A
:10059000CDF938B304EB8708303EC8F8186019E08D
:1005A00059F8041B204604EB87029161E1688847F3
:1005B000012F064618D1E069002820DA25F0200531
:1005C0001DE0D8F8180000EB800006EB4000303842
:1005D000C8F818002046E1688847064603F0A6F9E7
:1005E0000028EED1012F0AD02E2E08D12046E16836
:1005F00088477F1C0646022F45F02005C4DBA06912
:10060000002803DA404245F00105A061E80701D067
:1006100025F01005A6B1A6F14100192802D8203610
:1006200045F400654A463146204625604D46FFF7B1
:10063000E5FD60B1012807D0ED1D25F0070000E0C1
:1006400007E000F1080978E705F1040975E730468D
:100650007AE7206ABDE8F09FD44C00000FB400B5E3
:100660008DB010A9099000910B904FF0FF300A90C7
:1006700000200C90064878440690064878446A4664
:1006800007900F9909A800F043FA0DB05DF814FB2C
:10069000B7040000CF0400002DE9FF5F1D464FF0B6
:1006A000FF3B91464FF000085F46D5E90146A96936
:1006B00001987F1C8847296A824688470028F6D11E
:1006C000BAF1FF3F0CD0002E24F4C06419DD60069F
:1006D00014D5BAF12B0F09D0BAF12D0F0ED103E0CA
:1006E000584604B0BDE8F09F44F48064A9690198BD
:1006F0007F1C8847761E8246002E02DDBAF1300F3D
:1007000003D0B9F1000F26D032E0A969761E019816
:100710007F1C44F400748847002E824605DDBAF140
:10072000780F06D0BAF1580F03D0B9F1000F10D0EE
:100730001EE0B9F1000F02D0B9F1100F18D1A9696C
:10074000761E01987F1C24F400748847824610208E
:1007500002E0082000E00A20814609E0A96908FBC0
:100760000908761E01987F1C44F40074884782466D
:10077000002E05DD4946504600F0B5F90028EDDAB7
:10078000E96901988847A00502D46FF00100A8E745
:10079000E00725D1600613D5600502D5C8F1000039
:1007A00000E0404629680A1D2A600968220501D533
:1007B000087015E0220701D5088011E008600FE0FD
:1007C0002868011D29600068210502D580F8008095
:1007D00006E0210702D5A0F8008001E0C0F8008003
:1007E00038467EE730B505460B462A4613F8014BDE
:1007F00012F8010B08B1A042F8D01CB1002802D0B9
:100800006D1CF1E7284630BD10B5431C02E010F81E
:10081000011B71B18107FAD14FF0013202C88C1A65
:100820008C4314EAC211F9D0C01A0A0603D0C01EC4
:1008300010BDC01A10BD0A0401D0801E10BD0902EF
:10084000FCD0401E10BD421E12F8013F002BFBD110
:1008500011F8013B002B02F8013BF9D17047032A44
:1008600040F2308010F0030C00F0158011F8013BCD
:10087000BCF1020F624498BF11F801CB00F8013BB4
:1008800038BF11F8013BA2F1040298BF00F801CB78
:1008900038BF00F8013B11F0030300F02580083A4F
:1008A000C0F0088051F8043B083A51F804CBA0E8A6
:1008B0000810F5E7121D5CBF51F8043B40F8043BFB
:1008C000AFF30080D20724BF11F8013B11F801CB30
:1008D00048BF11F8012B24BF00F8013B00F801CB01
:1008E00048BF00F8012B704710B5203AC0F00B80CC
:1008F000B1E81850203AA0E81850B1E81850A0E824
:100900001850BFF4F5AF5FEA027C24BFB1E818507D
:10091000A0E8185044BF18C918C0BDE810405FEAED
:10092000827C24BF51F8043B40F8043B08BF704769
:10093000D20728BF31F8023B48BF11F8012B28BF6E
:1009400020F8023B48BF00F8012B70474FF000022F
:100950000429C0F0128010F0030C00F01B80CCF1D1
:10096000040CBCF1020F18BF00F8012BA8BF20F83F
:10097000022BA1EB0C0100F00DB85FEAC17C24BF93
:1009800000F8012B00F8012B48BF00F8012B70473D
:100990004FF0000200B5134694469646203922BF18
:1009A000A0E80C50A0E80C50B1F12001BFF4F7AF63
:1009B000090728BFA0E80C5048BF0CC05DF804EB45
:1009C000890028BF40F8042B08BF704748BF20F8B3
:1009D000022B11F0804F18BF00F8012B70477047B1
:1009E0007047704710B500F0C3F8006810BD10B52F
:1009F000044600F0BDF8046010BD2DE9F0470D4637
:100A000099469246044600F124080168880604D5F8
:100A1000E06921F01001216000E00120A84201DD21
:100A2000471B00E00027A1697A1902EB0900081AA8
:100A3000A0612078C00602D42046FFF70FFD0026F3
:100A400008E0D4E901211AF806009047206A401C0A
:100A5000761C20624E45F4DB2078C0060AD520467D
:100A6000FFF7FCFC06E0D4E9012130209047206A22
:100A7000401C2062381EA7F10107F4DC07E0D4E92E
:100A8000012118F805009047206A401C2062281EAA
:100A9000A5F10105F3DC2046FFF7F6FC20780006FF
:100AA00002D50220BDE8F0870120FBE701694A1C5E
:100AB00002610878704700B58FB0CDE9013100219F
:100AC000059105497944CDE9031011466846FFF7C1
:100AD00029FD0FB000BD0000E5FFFFFF0A6802F826
:100AE000010B0A6070473A2800D2303820F020020B
:100AF000412A01D3A2F13700884201D34FF0FF30E1
:100B0000704700000268114413780160184670476E
:100B1000D160054979445161044979441162002149
:100B20001161114600F032B8EDFFFFFF5B000000DD
:100B3000426842B1016811F8013B23B1521EC0E97D
:100B40000012184670470121C160881E7047426834
:100B50005AB1C368016843B983688B4205D0491E06
:100B6000521CC0E90012002070474FF0FF30704760
:100B7000004870478C42002010B5044600F0EAF9A6
:100B80000068005D00F0010010BD00002DE9F34F8A
:100B90004FF0000A0C4656468DB001200C9001F132
:100BA0000C000B9062690B9801219047051E2DD017
:100BB000252D2CD0216A8847C0B162690B9801218C
:100BC0009047216A88470028F7D16269411E0B9837
:100BD000904700E0761CA1690D988847216A8847F4
:100BE0000028F7D1E1690D988847DBE7A1690D98E6
:100BF0008847A842074601D1761CD3E7E1690D98E2
:100C000088477F1C02D1BAF1000F6FD06CE1626996
:100C10000B9800273D46394690472A2804D162693F
:100C20000B98012190470125DFF8D08262690B986B
:100C300001219047A0F130010A290AD24745E5DC9D
:100C400007EB870100EB4107303FDFD445F010058B
:100C5000ECE7E90601D46FF000476C280AD04C2875
:100C600014D0682815D06A280DD074281CD07A2892
:100C70001AD01DE062690B98012190476C2802D0C0
:100C800045F0040514E045F002050DE045F02005AF
:100C90000AE062690B9801219047682802D045F06C
:100CA000080505E045F4006562690B98012190474D
:100CB000C4E9015765283DD019DC58287AD00CDCEE
:100CC000452837D004DC252826D041289ED131E0A4
:100CD00046282FD0472899D12CE05B2877D061286F
:100CE00028D063287CD0642823D15AE0F7E06F280D
:100CF00048D008DC66281DD067281BD0692821D081
:100D00006E2816D127E0702845D0732868D0752842
:100D100047D078280DD14DE0A1690D988847252846
:100D200005463FF469AFE1690D9888476D1C3FF4B3
:100D30006AAFD9E00D9923466A466FF00100AFF320
:100D40000080C6E045F0400023464FF0000260609E
:100D5000A80736D43EE0E8077FF447AF2068011DBE
:100D600021600068290501D506701BE7290701D518
:100D7000068017E7A90703D5F117C0E9006111E75D
:100D800006600FE745F0400023464FF00802606020
:100D9000A80716D41EE040F60E0125EA01006060A7
:100DA00016E045F0400023464FF00A026060A807B5
:100DB00007D40FE045F040006060A80708D523463F
:100DC00010220D996FF00100AFF3008081E007E081
:100DD000102223460D996FF00100FFF75DFC78E0CB
:100DE0004FF0000963284F46C8464B46CB4602D019
:100DF0005B2807D039E02079C00601D40120A0602B
:100E0000012732E06269D4F80CB00B9801219047B9
:100E10005E2807D14FF0010949466269D4F80CB049
:100E20000B989047216939B900210A4603AB43F872
:100E30002120491C0829FADBD8B3216949B308F1FC
:100E4000010862690B98012190475D28F4D1B9F13E
:100E5000000F09D0002003A951F82020D24341F807
:100E60002020401C0828F7DB03AB206900282079EC
:100E70004FEA40701ED05B462246CDF80080CDE997
:100E800001970D9900286FF0010020DAAFF3008080
:100E90001FE0C11703AA00EBD1614B1121F01F0124
:100EA00002EB8302411A1368012088400343136058
:100EB000C7E719E00D99224600286FF0010000975E
:100EC00002DAAFF3008004E0AFF3008001E0AFF39B
:100ED000008000280ADA401C06D10C9820B14FF09F
:100EE000FF300FB0BDE8F08F5046FAE7E90701D1B7
:100EF0000AF1010A064400200C9053E6CCCCCC0C3D
:100F0000004870478C4200207546FFF7F9FFAE4657
:100F100005006946534620F00700854618B020B505
:100F2000FFF7FEF9BDE820404FF000064FF0000744
:100F30004FF000084FF0000B21F00701AC46ACE881
:100F4000C009ACE8C009ACE8C009ACE8C0098D46EE
:100F50007047000010B500F00FF8001D10BD00BF75
:100F6000493B000010B50446AFF300802046BDE8C1
:100F70001040FFF760B9000000487047AC42002005
:100F800001491820ABBEFEE7260002004FF0013CED
:100F900050F8042B51F8043B9A4221D1A2EB0C03E8
:100FA000934313EACC1317D150F8042B51F8043BA8
:100FB0009A4215D1A2EB0C03934313EACC130BD145
:100FC00050F8042B51F8043B9A4209D1A2EB0C03D0
:100FD000934313EACC13DBD04FF00000704700BFFF
:100FE000D01A01BAB1FA81F101F0180122FA01F028
:100FF000CB40C1F12001DBB2C0B2C01A2CFA01F320
:10100000D11A914311EAC311E6D1704770474FF4EA
:10101000FA62032101F06EBCFEE70000014800F017
:10102000BFB8000040040020014800F0B9B800003B
:1010300080030020014800F0B3B80000E003002066
:1010400001681823CAB2103AB2FBF3F2054B6FF3F2
:101050000901032A9B5CC36500D9091D8165084607
:10106000704700006C51000810B5014600208B69E4
:101070008A6A4FF0C07453B1B3F5005F15D072B1F6
:10108000012A0CD0022A0AD0032A09D104E01AB19D
:10109000012A06D0022A03D1C96AC90100D501205C
:1010A00010BDC96AA142FAD010BD002AF7D0012AAA
:1010B000F2D0022AF3D0032AF3D010BD30B5046871
:1010C000256825F480252560046863608368402BCB
:1010D000036803D099600068C26030BD9A60006800
:1010E000C16030BD704772B6FEE72DE9F04104469D
:1010F000876D00F0D1FA064694F8350000250228E5
:1011000006D08020606584F834500120BDE8F0816D
:101110002068016821F0160101602068416921F012
:1011200080014161206C08B9A06C20B12068016881
:1011300021F0080101602068016821F001010160CF
:101140000CE000F0A9FA801B052807D92020606573
:10115000032084F8350084F83450D7E7206800680D
:10116000C007EED194F85C103F208840B8600120A1
:1011700084F8350084F834500020C7E790F8351023
:10118000022903D08021416501207047052180F8A4
:1011900035100068016821F00101016000207047EE
:1011A0002DE9F84304464FF00009CDF8009063485C
:1011B0004FF41651A56D0068B0FBF1F72E6894F856
:1011C0005C10082000FA01F131420FD021680A6852
:1011D00052070BD50A6822F004020A6094F85C10EA
:1011E0008840A860606D40F00100606594F85C1074
:1011F0004FF0010808FA01F0304208D0216849692F
:10120000090604D5A860606D40F00200606594F89E
:101210005C1004208840304208D0216809688907A2
:1012200004D5A860606D40F00400606594F85C101F
:1012300010208840304218D021680968090714D569
:10124000A86020680168490304D50068000308D538
:10125000A16C07E00168C90503D4016821F0080109
:101260000160216C09B12046884794F85C10202069
:101270008840304231D021680968C9062DD5A86060
:1012800094F8350005282068016806D0490347D541
:10129000006800031DD4616C1CE021F016010160A0
:1012A0002068416921F080014161206C08B9A06C7F
:1012B00020B12068016821F00801016094F85C10F9
:1012C0003F208840A86084F8358084F83490216DF0
:1012D0001FE0E16B09B120468847606D00282BD0E4
:1012E000606DC00714D0052084F8350020680168BF
:1012F00021F0010101600098401C0090B84203D821
:1013000020680068C007F6D184F8358084F83490EE
:10131000E16C002910D001B02046BDE8F043084739
:101320000168C905D5D4016821F01001016084F875
:10133000358084F83490CCE7BDE8F88310000020B5
:101340002DE9F041044600F0A7F906465CB1022001
:1013500084F83500002584F834502068016821F0B5
:10136000010101600DE00120BDE8F08100F094F979
:10137000801B052805D920206065032084F83500EE
:10138000F2E720680068C007F0D1226811682048A1
:101390000140D4E901031843D4E903363343184329
:1013A00063691843A3691843E3691843236A184320
:1013B0000843616A042903D1D4E90B131943084394
:1013C000106020684069666A20F0070130460E43CD
:1013D000012704280CD1A06A0643E06A40B12046E8
:1013E000FFF742FE20B14020606584F83570BAE70F
:1013F000206846612046FFF723FE94F85C203F21D9
:1014000091408160656584F835700020ACE700008C
:101410003F8010F02DE9F0410446866D90F83400CD
:10142000002501280DD0012084F8340094F835708F
:101430000020012F07D084F8340002252846BDE89B
:10144000F0810220FBE7022784F8357060652046B2
:10145000FFF734FE94F85C103F208840B0602068AD
:10146000016841F016010160206C20B1206801681C
:1014700041F0080101602068016841F0010101604C
:10148000DCE7000070B5044600F006F90546601C74
:1014900002D004480078044400F0FEF8401BA0424B
:1014A000FAD370BD040000202DE9F84FDFF8BCA18D
:1014B0000022012503264FF00F090AF1040BAAF1BF
:1014C000040E00BF0B6805FA02F42340A34270D15A
:1014D0000F7907F00307012F01D0022F16D187687B
:1014E0004FEA420806FA08FC27EA0C07D1F80CC0BC
:1014F0000CFA08FC4CEA070CC0F808C04768A74380
:101500000C79C4F3001494403C4344600C79E443E8
:10151000A4070AD0C4684FEA420C06FA0CF7BC4391
:101520008F6807FA0CF72743C7600C7904F00304AF
:10153000022C12D1D40800EB840CDCF820405707B1
:10154000FF0E09FA07F824EA0804D1F8108008FA17
:1015500007F848EA0408CCF8208004684FEA420CF7
:1015600006FA0CF7BC430F7907F0030707FA0CF7EC
:10157000274307604C6814F4403F70D03C4C276808
:1015800047F480472760246822F0030704F480446E
:101590000094384C07EB040CDCF8084897074FEA36
:1015A000177809FA08F7BC43334FB84202D1002735
:1015B00024E054E0314FB84201D101271EE0304F02
:1015C000B84201D1022719E02E4FB84201D10327BA
:1015D00014E02D4FB84201D104270FE02B4FB84241
:1015E00001D105270AE02A4FB84201D1062705E0BC
:1015F000284FB84201D1072700E0082707FA08F76B
:101600002743CCF80878DAF800405746D1F804C0F0
:101610009C435FEACC2C00D51C433C60DBF80040C7
:101620005F46D1F804C09C435FEA8C2C00D51C4374
:101630003C60DEF800407746D1F804C09C435FEA86
:101640008C3C00D51C433C60084F083F3C68D1F8F7
:1016500004C09C435FEACC3C00D51C433C60521C58
:10166000102AFFF42FAFBDE8F88F0000083C0140BE
:1016700044380240003001400000024000040240B3
:1016800000080240000C024000100240001402401A
:1016900000180240001C02400148806870470000AA
:1016A000040000200248816802781144816070477C
:1016B000040000200B4810B5016841F4007101607E
:1016C000016841F480610160016841F4807101604A
:1016D000032000F099F80F2000F006F800F04AF817
:1016E000002010BD003C024030B505461C4887B0C4
:1016F0000024016841F001010160006806A900F0C2
:101700000100009001A800F02BF900F059F91549EB
:10171000154AB0FBF1F11548491E026040F2E7326C
:10172000C0E90324C0E90114846100F043FB040014
:1017300012D10E4800F06CFB04000DD1192000F00E
:1017400035F8102D07D200222946192000F03CF868
:101750000748056000E0012407B0204630BD0000C6
:101760004438024040420F0000000140A004002025
:10177000080000200C4882B0016841F480410160FB
:10178000006800F4804000900748001F016841F0A5
:10179000805101600068002200F0805000900F210D
:1017A000901E02B000F010B844380240002809DB57
:1017B00000F01F02012191404009800000F1E0206B
:1017C000C0F8001170470000F0B40E4B1B680C46C7
:1017D000C3F30223C3F10705042D00D90425191D05
:1017E000072901D2002300E0DB1E012606FA05F1DD
:1017F000491E214099409E40761E16403143F0BC60
:1018000001F054BC0CED00E0064900F00702086846
:101810004FF6FF03184040EA0220034A10430860D5
:10182000704700000CED00E00000FA052DE9F047DC
:101830000E46050065D0DFF81481D8F80000F7B235
:1018400000F00700B04207D288F80070D8F8000016
:1018500000F00700B04254D128683D4C810712D5F2
:10186000400703D5206840F4E05020602878000746
:1018700003D5206840F4604020602068A96820F00B
:10188000F000084320602878C0072DD030496868F0
:101890000839012812D0022813D0032811D0096872
:1018A000890700292DDA216821F003010143216015
:1018B000FFF7F2FE814641F2883A0EE0096889039B
:1018C000EFE709688901ECE7FFF7E6FEA0EB090105
:1018D000514502D90320BDE8F0872068696800F00F
:1018E0000C00B0EB810FEFD1D8F80010404601F0AA
:1018F0000701B14207D90770006800F00700B04245
:1019000001D00120E7E72878400705D52068E9687D
:1019100020F4E050084320602878000706D52068AE
:10192000296920F4604040EAC100206000F058F8C6
:101930002168084AC1F30311515CC8400649086098
:1019400006480068FFF7D0FE0020C4E7003C0240D4
:1019500008380240745100081000002008000020E0
:101960000F2202600C4A136803F0030343601368FC
:1019700003F0F0038360136803F4E053C36012685C
:101980004FF4E05303EAD20202610448006800F019
:10199000070008607047000008380240003C024021
:1019A0000448054900680968044AC1F38221515C72
:1019B000C8407047100000200838024084510008D9
:1019C0000448054900680968044AC1F34231515C82
:1019D000C8407047100000200838024084510008B9
:1019E000154810B5006810F00C02144813D01449C3
:1019F000042A0FD0082A0ED10F4C241F2268236816
:101A000002F03F025B0207D52068C0F38810A0FBFC
:101A1000010106E0084610BD2168C1F38811A1FB51
:101A200000010023FEF78EFC2168C1F30141491C2F
:101A30004900B0FBF1F010BD083802400024F4006A
:101A400040787D012DE9F84F04006ED02078DFF852
:101A50004C93C007A9F104054AD009F104000168BC
:101A6000C1F38101012908D00068C0F38100022878
:101A70000AD1D9F80000400206D52868800337D57E
:101A800060680028E1D033E06068B0F5803F10D096
:101A9000B0F5A02F286810D020F480302860286886
:101AA00020F4802028606068A8B1FFF7F5FD0646A5
:101AB0000DE0286840F48030F4E740F4802028608E
:101AC000F7E700BFFFF7E8FD801B642873D828689C
:101AD0008003F7D50CE0FFF7DFFD064605E000BF09
:101AE000FFF7DAFD801B6428F0D828688003F7D45C
:101AF0002078DFF8AC8280074FF0000A3ED5A74877
:101B0000001D016811F00C0F08D00068C0F38100BF
:101B100002280BD1D9F80000400207D428688007BA
:101B200016D5E068012800D112E033E1E068B8B1D1
:101B30000120C8F80000FFF7AFFD064605E000BF32
:101B4000FFF7AAFD801B0228C0D828688007F7D5B8
:101B50002868216920F0F80040EAC10028600DE003
:101B6000C8F800A0FFF798FD064604E0FFF794FDD3
:101B7000801B02281FD828688007F7D42078000728
:101B800022D5864F87486169703771B101210160A4
:101B9000FFF782FD064604E0FFF77EFD801B02286A
:101BA00009D838688007F7D50EE0C0F800A0FFF725
:101BB00073FD064605E082E0FFF76EFD801B0228FC
:101BC0007DD838688007F7D42078400768D5DFF8DB
:101BD000CCB100270BF13C0BDBF80000C0000BD4AC
:101BE000DBF8001041F08051CBF80010DBF800006A
:101BF000012700F0805000906B4E3068C00510D473
:101C0000306840F480703060FFF746FD009005E0DA
:101C1000FFF742FD0099401A022850D83068C005ED
:101C2000F6D55E4EA0686C3601280FD005283068C6
:101C300010D020F001003060306820F004003060E7
:101C4000A068B8B1FFF728FD00900FE0306840F0C1
:101C50000100F4E740F004003060F7E7FFF71CFDF7
:101C60000099411A41F28830814266D83068800775
:101C7000F4D50EE0FFF710FD009007E0FFF70CFD34
:101C80000099411A41F28830814256D83068800765
:101C9000F4D42FB1DBF8001021F08051CBF8001004
:101CA000A069C8B33D49091D0968C1F38101022932
:101CB0004AD00228504607D0C8F8600000E03CE057
:101CC000FFF7EAFC04463BE04746C8F86000FFF730
:101CD000E3FC064605E000BFFFF7DEFC801B0228A0
:101CE0002BD828688001F7D4D4E907010843A16AFA
:101CF0002E4A490802EB0141626A41EA8211084317
:101D000094F82C1040EA0161C9F8001001203866EF
:101D1000FFF7C2FC044606E03EE000BFFFF7BCFC54
:101D2000001B022809D828688001F7D534E000BFDD
:101D3000FFF7B2FC001B022802D90320BDE8F88F90
:101D400028688001F4D427E00128F7D0D9F80000F2
:101D5000E26900F4800191421CD1226A00F03F0147
:101D6000914217D147F6C071626A0140B1EB821F00
:101D700010D1A26A4FF0FF3300F4403103EB52025E
:101D8000B1EB024F06D194F82C1000F07060B0EB6C
:101D9000016F01D00120D1E70020CFE704380240D5
:101DA00000004742800E4742007000400000FFFFE5
:101DB0007047704710B5040003D094F83D0010B18F
:101DC00007E0012010BD002084F83C00204600F010
:101DD0001EF8022084F83D00211D206800F0D4FE8A
:101DE000012084F8460084F83E0084F83F0084F81F
:101DF000400084F8410084F8420084F8430084F8ED
:101E0000440084F8450084F83D00002010BD704770
:101E100090F83D10012901D001207047022180F87F
:101E20003D100168CA6842F00102CA6000681149A9
:101E3000884214D0B0F1804F11D00F4988420ED0A3
:101E40000E4988420BD00E49884208D00D4988427D
:101E500005D00D49884202D00C49884204D18168DE
:101E600001F00701062903D0016841F0010101607A
:101E700000207047000001400004004000080040BE
:101E8000000C0040000401400040014000180040E8
:101E900070472DE9F04104460068C66805694FF0B7
:101EA0000007A90713D5B10711D5F91E016101205B
:101EB0002077206880698007204602D0FFF7E8FF7E
:101EC00004E000F07EF8204600F07CF827776807F1
:101ED00016D5700714D521686FF004000861022040
:101EE00020772068806910F4407F204602D0FFF7F9
:101EF000CFFF04E000F065F8204600F063F8277794
:101F0000280715D5300713D521686FF00800086140
:101F1000042020772068C0698007204602D0FFF7A0
:101F2000B7FF04E000F04DF8204600F04BF82777AB
:101F3000E80616D5F00614D521686FF01000086188
:101F4000082020772068C06910F4407F204602D026
:101F5000FFF79EFF04E000F034F8204600F032F86E
:101F60002777E80708D0F00706D021686FF0010056
:101F70000861204600F028F8280608D5300606D566
:101F800021686FF0800008612046FFF711FF6806A6
:101F900008D5700606D521686FF04000086120461C
:101FA00000F01CF8A8060AD5B00608D521686FF025
:101FB000200008612046BDE8F041FFF7FABEBDE809
:101FC000F08170477047000000680349884201D1E2
:101FD000FFF768BB7047000000000140704738B54C
:101FE000044690F84200202801D0022038BD51B1AB
:101FF0004AB10120206300206063204600F0ECFF1E
:10200000216B012901D0012038BD21680A68496887
:10201000009121680C3151E8002F42F0100241E894
:102020000023002BF5D138BD094A10B590420DD1DF
:1020300008480A468180084901F12000FEF70FFC9C
:1020400000F0AEFCBDE8104000F004BD10BD000083
:10205000F00200207C000020D841002070470000E2
:10206000F8B5016804460868CA684B6910F00F0F9C
:102070004FF0000559D003F0010602F49077374382
:1020800065D0C10705D0D10503D5616C41F00101D0
:102090006164410705D5D90703D0616C41F00201A5
:1020A0006164810705D5D90703D0616C41F0040153
:1020B0006164010707D502F02001314303D0616C50
:1020C00041F008016164616C00293AD0800604D5B2
:1020D000900602D5204600F098FE20684069616CA9
:1020E000C0F38010090700D460B3204600F058FE0A
:1020F00020684069400621D52068143050E8001F50
:1021000021F0400140E80012002AF5D1E06BA8B1AF
:1021100072490165E06BFFF731F8002811D0E06BE0
:10212000016D01B0BDE8F040084783060FD5930666
:102130000DD52046BDE8F84000F067BE2046FFF709
:102140008DFFF8BD2046FFF789FF6564F8BD266B5B
:102150002023012E7ED1C6067CD5D6067AD5086806
:102160004868009048694FF0020640064DD5E26B82
:10217000106840684FF480770004000C3AD0A18DBD
:10218000814237D9E085D069B8422DD020680C3023
:1021900050E8001F21F4807140E80012002AF5D1B8
:1021A0002068143050E8001F21F0010140E80012BF
:1021B000002AF5D12068143050E8001F21F04001BA
:1021C00040E80012002AF5D184F8423025632068E7
:1021D0000C3050E8001F21F0100140E80012002AE6
:1021E000F5D1E06BFEF781FF6663A08DE18D401AAB
:1021F00081B206E0A18D8142A8D1D069B842A5D1B3
:1022000066632046FFF710FFF8BDA08DE18D401AF0
:1022100081B2E08D0028F7D00029F5D020680C307D
:1022200050E8002F22F4907240E80027002FF5D1EB
:102230002068143050E8002F22F0010240E8002707
:10224000002FF5D184F84230256320680C3050E827
:10225000002F00E006E022F0100240E80023002BEF
:10226000F3D1CDE705062BD5150629D594F8410005
:102270002128C9D1A068B0F5805F01D12069B0B133
:10228000206A411C2162216800784860E08C401E71
:102290000004000CE084B7D12068C16821F08001FF
:1022A000C1602068C16841F04001C160F8BD206A8A
:1022B0000088C0F308004860206A801C2062E5E7BF
:1022C0004006F3D55006F1D5CA68204622F04002F8
:1022D000CA6084F8413000F039F9F8BD592C000883
:1022E00070B5040004D094F84100002510B106E058
:1022F000012070BD84F84050204600F023F82420CF
:1023000084F841002068C16821F40051C160204672
:1023100000F0DCFD2068016921F490410161206832
:10232000416921F02A0141612068C16841F40051EE
:10233000C1606564202084F8410084F84200656330
:10234000002070BD2DE9F04387B006461421684691
:10235000FEF71EFB4E494E48DFF83081D6F800C02C
:10236000103802220323072500244F054FF480690B
:10237000C44552D1D1F800C04CF4003CC1F800C0B3
:10238000096801F400310591016841F00101016023
:102390000068694600F0010005900C208DE81500EA
:1023A000CDE903353B48FFF77FF83C4D3A48B84646
:1023B0002860C5E90174C5E903496C61AC61EC6151
:1023C0002C624F4628466C62FEF7BAFF08B1FEF752
:1023D0008AFEF563AE63314D2F4860351830E5E86D
:1023E0000208402091C52D4845F814496030AC6181
:1023F000EC612C626C62FEF7A3FF08B1FEF773FE7E
:10240000B563002205212620AE63FFF7DDF9262003
:10241000FFF7CCF907B0BDE8F083DFF88480C4454E
:10242000F8D1D1F800C04CF4802CC1F800C0096884
:1024300001F480210591016841F00201016000680A
:10244000694600F0020005904FF440608DE81500E9
:10245000CDE903351348FFF727F8104D0E48C03576
:1024600060382860C5E90174C5E903496C614FF41F
:102470008030AC61C5E9074028466C62FEF760FF1A
:1024800008B1FEF730FEF563AE63C3E700440040D9
:102490004038024000000240886002408003002073
:1024A000004800400004024090F84230202B01D048
:1024B0000220704721B11AB10023036300F08CBDE4
:1024C000012070477047704770B5044690F841008E
:1024D000202801D0022070BD01B3FAB12162A2848C
:1024E000E28400206064212384F84130A56B144B02
:1024F000EB63A56B134B2B64A56B134BEB64A36BC6
:10250000186520681346A56B021D2846FEF782FF5A
:1025100030B110206064202084F84100012070BD9B
:1025200021686FF0400008602068143050E8001FF8
:1025300041F0800140E80012002AF5D1002070BD72
:10254000552D0008972D0008672C00080349884284
:1025500002D103490020087070470000F0020020FB
:102560007C0000207047FEE710B504462DED068B79
:102570009FED5A8ADFED5A8A8068E16841EC100BC2
:1025800053EC102B02F080FB41EC190B20686168C2
:1025900041EC100B53EC102B02F076FB53EC192B93
:1025A00002F0CAFA02F096FA00EE100A01F0E0F822
:1025B00020696169F0EE409A9FED4A1B53EC112BA4
:1025C00002F060FC02F086FA29EEA90A09EE100A70
:1025D00009EE090A01F0CCF8DFED440AF4EEC00A76
:1025E000F1EE10FA09D220EEA91AC1EE009A20EEFF
:1025F000891A81EE009AB0EE600ADFED3D0A9FED88
:102600003D1A40EE400A80EE810AB7EE001AFFEE56
:10261000000A01F0AFF900F059FDB0EE40AA00F059
:1026200037FF00EE288AB0EE4A0A00F0D9FF60EECC
:10263000288AF0EE690AB0EE490A00F0D3FDB0EE48
:10264000409AF0EE480AB0EE680A00F0CBFD39EE91
:10265000000ADFED290AD4F83500DFED291A30EE43
:10266000200A01EE100ADFED250A9FED262A00EE72
:10267000201ABCEEC10A10EE100A80B26087E16B2E
:1026800001EE101A0AEE201AF0EE420ABCEEC10A60
:10269000B0EE611A10EE101A00EE100AA4F8411004
:1026A000B8EE400A01F066F9BCEEC00AB0EE611A5D
:1026B000F0EE420A10EE100A6087B4F8410000EE16
:1026C000100AB8EE400A01F055F9BCEEC00A10EE4F
:1026D000100AA4F84100BDEC068B10BD9A99193E72
:1026E000CDCC4C3D000000403333C33FCDCC4C3EFD
:1026F000CDCCCC3C90C2753CDB0FC93FE12E65428E
:10270000000034430000000010B504462DED028B9C
:102710000068616802F0DEF908EE100AA068E1685E
:1027200002F0D8F900EE100AF0EE480A00F05AFD67
:10273000DFED1B0AB4F8330020EE200A00EE900A09
:10274000F8EE600A70EE600AF0EEE00A10EE900A11
:10275000B0F17E5F1CDDD4F835009FED121A00EE5B
:10276000900A30EE800ADFED100ABCEEC00A10EECF
:10277000100A80B200EE100AA4F83300B8EE400A46
:1027800001F0F8F8BCEEC00A10EE100AA4F833000D
:102790002046BDEC028BBDE81040FFF7E5BE00000F
:1027A000E12E6542000087430000000010B52022A2
:1027B00005490648FFF713FC0448C06B0068016830
:1027C00021F00801016010BD2442002038030020E0
:1027D000114808B5016841F4001101600068002249
:1027E00000F40010009005210C20FEF7EDFF0C20F6
:1027F000FEF7DCFF002205211020FEF7E5FF102088
:10280000FEF7D4FF002205211120FEF7DDFFBDE811
:1028100008401120FEF7CABF3038024000B587B02B
:102820001C2206496846FEF75FF80021684601F061
:102830004DF90349086007B000BD00005051000881
:10284000000000200D4808B5016841F080010160DA
:10285000016801F080010091016841F0010101600F
:10286000016801F001010091016841F0020101607D
:10287000006800F00200009008BD000030380240FF
:102880000C4810B50A4901604FF4E1314160002164
:1028900081600C22C160C0E904128161C161FFF74F
:1028A0001FFD002803D0BDE81040FEF71CBC10BD82
:1028B00000440040F00200200C4810B50A490160B5
:1028C0004FF4E1314160002181600C22C160C0E918
:1028D00004128161C161FFF703FD002803D0BDE848
:1028E0001040FEF700BC10BD004800403803002037
:1028F000FEE7FEE72DE9F043A9B00E46070002D03F
:102900000EB1102E03D9012029B0BDE8F08342F2A8
:102910000F70824200D90246914680221A496846C9
:10292000FDF7E2FF202120A8FEF732F800244FF443
:10293000FA7540F6C41817E0C4EBC400C119B1F829
:102940003330AB4201D22B4602E0434500D9434627
:1029500091F832200DA120A8FDF76CFD20A9684652
:10296000FDF771FF641CE4B2B442E5D34A460AA104
:1029700020A8FDF75FFD20A96846FDF764FF6846C3
:1029800000F046F8C0E700008C5100082530337590
:102990005025303475000000542530347521000076
:1029A00070B5144CA088002823D0134900250A785C
:1029B000232A19D1084410F8010C212814D10FA1A1
:1029C0000D48FDF70FFF012608B1A6700CE00CA121
:1029D0000948FDF707FF38B1064B0AA19B1D5A1F96
:1029E0000548FDF73BFEF0E720210348FDF7AEFF69
:1029F000A58070BD7C000020F84100204F4B0000F6
:102A000050000000232530337550253034752100E7
:102A100070B5050015D0FDF7F7FE90B10B4C20788E
:102A2000012810D0012020702846FDF7EDFE82B26B
:102A300029460748FFF748FD002801D000212170F2
:102A400070BD012070BD022070BD00007C00002020
:102A5000F002002005480068C16841F01001C16023
:102A6000202203490148FFF71FBD0000F0020020AB
:102A7000D841002092B00AA0FFF7CAFF0BA0FFF7D1
:102A8000C7FF0DA0FFF7C4FF6420FEF7FBFC6846FC
:102A9000FEF7BDFA01F052FC012001F00BF8F9E756
:102AA00023303031504D4F4431210000233030323B
:102AB000504D4F443121000023303033504D4F44AE
:102AC0003121000010B5502080F31188BFF34F8FE3
:102AD000BFF36F8F01F020FF18B104494FF0805011
:102AE0000860002080F3118810BD000004ED00E0B4
:102AF00010B592B030216846FDF74AFF14210CA8AA
:102B0000FDF746FF17480024016841F0805101603D
:102B1000006800F0805011901348016841F4804132
:102B200001600068069400F480401190022000903B
:102B300001200390102004906846FEF783FF08B13F
:102B400072B6FEE70F20CDE90C040E940F9400211D
:102B50000CA81094FEF76AFE002801D072B6FEE7BA
:102B600012B010BD403802400070004002480168B9
:102B700041F470010160704788ED00E00148FFF703
:102B800088B90000A0040020F0B50268274B284D4A
:102B9000284E294F294C4FF0804C984209D060456F
:102BA00007D0A84205D0B04203D0B84201D0A0421D
:102BB00004D122F0700E4A6842EA0E0298421BD0FD
:102BC000604519D0A84217D0B04215D0B84213D0F2
:102BD000A04211D01A4DA8420ED01A4DA8420BD0D7
:102BE000194DA84208D0194DA84205D0184DA84249
:102BF00002D0184DA84203D122F44075CA682A4376
:102C00004D6922F080022A438D68C5620D68856295
:102C1000984201D0A04201D109690163016841F0E5
:102C200004010160012141610260F0BD000001402A
:102C30000004004000080040000C00400004014077
:102C4000004001400044014000480140001800409D
:102C5000001C00400020004010B5806B0021C185A1
:102C6000FFF7FCF910BD70B5846B2068406994F8DB
:102C70004110C0F3C0100025212904D118B1E5840A
:102C8000204600F0B4F82068406994F84210C0F380
:102C90008010222904D118B1E585204600F080F883
:102CA000606C40F0100060642046FFF7D7F970BDFB
:102CB00010B50146806B096809684FF00002C9052C
:102CC0002ED4C28501680C3151E8003F23F4807393
:102CD00041E80034002CF5D10168143151E8003F7F
:102CE00023F0010341E80034002CF5D101681431D0
:102CF00051E8003F23F0400341E80034002CF5D1B7
:102D0000202180F84210016B012909D101680C31A2
:102D100051E8003F23F0100341E80034002CF5D1C6
:102D20004263016B012902D0FFF7CCFB10BD818DFE
:102D3000FFF77AF910BD10B5806B01214163016B7B
:102D4000012902D0FFF7BFFB10BD818D4908FFF7B5
:102D50006BF910BD10B50146806B09680968C9059B
:102D600016D40021C1840168143151E8002F22F0EB
:102D7000800241E80023002BF5D101680C3151E8B5
:102D8000002F42F0400241E80023002BF5D110BD96
:102D9000FFF7DCFB10BD10B5806BFFF7E3FB10BD48
:102DA00001680C3151E8002F22F4907241E80023B1
:102DB000002BF5D10168143151E8002F22F00102F7
:102DC00041E80023002BF5D1016B012909D10168ED
:102DD0000C3151E8002F22F0100241E80023002BB3
:102DE000F5D1202180F8421000210163704701686D
:102DF0000C3151E8002F22F0C00241E80023002BE3
:102E0000F5D1202180F84110704708B590F84210A4
:102E1000222901D0022008BD82684FF480539A42D3
:102E200001D1016921B1816A9A421BD04AB10AE0FD
:102E30000268816A5268C2F308020A80816A891CAA
:102E400008E0026972B10268526802F07F020A70FB
:102E5000816A491C8162C18D491E0904090CC18522
:102E600003D01BE002685268F1E70168CA6822F0EB
:102E70002002CA600168CA6822F48072CA600168D0
:102E80004A6922F001024A61202180F842100021A3
:102E90004163026B012A03D0FFF714FB002008BD39
:102EA000016301680C3151E8002F22F0100241E863
:102EB0000023002BF5D101680A68D20602D50A6802
:102EC00049680091818DFFF7AFF8E7E770B50446D8
:102ED00000680169E26821F44051114301612169F0
:102EE000A068E26908436169114308432168CA6820
:102EF00049F20C639A430243CA6020684169A2699F
:102F000021F440711143416131492068884202D067
:102F10003049884202D1FEF753FD01E0FEF740FD43
:102F2000E2690023192164253226B2F5004F626858
:102F300028D0A0FB0101930F9200FDF703FA014690
:102F4000B0FBF5F06FF01802504301EB800006EB88
:102F50000010B0FBF5F000F0F002B1FBF5F002EB71
:102F60000012B1FBF5F06FF01803584301EB80003D
:102F700006EB0010B0FBF5F000F00F0021681044E4
:102F8000886070BDA0FB010192185B41FDF7DAF982
:102F90000146B0FBF5F00201B1FBF5F06FF018034C
:102FA000584301EB800006EBC000B0FBF5F000F0E9
:102FB000F80002EB4002B1FBF5F0584301EB800052
:102FC00006EBC000B0FBF5F000F00700D6E700000C
:102FD000001001400014014038B58162044682852A
:102FE000002013466064222284F84220E56B1F4AC9
:102FF000EA63E56B1E4A2A64E56B1E4AEA64E26BEB
:1030000010650A462168E06B091DFEF703FA30B12E
:1030100010206064202084F84200012038BD206820
:10302000016840680090206948B120680C3050E881
:10303000001F41F4807140E80012002AF5D1206899
:10304000143050E8001F41F0010140E80012002A4E
:10305000F5D12068143050E8001F41F0400140E8ED
:103060000012002AF5D1002038BD0000B12C000864
:10307000372D0008672C00080148FEF7F1BF00005B
:10308000F0020020FEE74100080218BF04200A0EEB
:1030900018BF40F001004FF07F4232EA010108BF43
:1030A00040F00200012808BF052070470907090EFB
:1030B000002804DB00F1E02080F80014704700F0E5
:1030C0000F0000F1E02080F8141D704710B510EEDD
:1030D000104A4FF01A402DED028B00EB4400B0F186
:1030E000C85F4AD84FF0FC40B0EB440F22D2B0EE9C
:1030F000C00AF7EE000A30EEC00AF6EE000A20EE33
:10310000208A18EE100A01F0F9F800EE100A14F007
:10311000004F1DBF9FED281ADFED280AB1EE400ACF
:103120009FED271A08BFF0EE410AF8EE001A20EED4
:10313000210A05E020EE008A9FED221ADFED220A27
:10314000DFED221A9FED222A70EEC00A20EE080A57
:1031500008EE212ADFED1F1A48EE021A9FED1E2A03
:1031600008EE212ADFED1D1A48EE021ABDEC028B93
:1031700040EE610A30EE810A10BD4FF0CC40B0EB5A
:10318000440F82BF9FED160ABDEC028B10BD4FF0BD
:103190007F40B0EB440F05D2BDEC028BBDE8104080
:1031A00000F003BB0120FDF722FCBDEC028BBDE863
:1031B000104000F001BB00000000494022AA7D3A07
:1031C000000000000000C93F22AAFD3924FE1C3D7A
:1031D000C78AD83C1E67383D1B93993DAFAA2A3E4B
:1031E000DB0FC93F70B54FF068422DED048BF0EE58
:1031F000408A18EE900AB0EE608A18EE101A02EBC0
:103200004003B3F1654F3CBF02EB4102B2F1654FA1
:103210007DD200BFC0F3C753C1F3C7529A1A1B2A0D
:1032200009DD10F0004F14BF9FED830A9FED830A64
:10323000BDEC048B70BD12F11A0F36DA11F0004F9D
:1032400009D010F0004F0CBF9FED7D0A9FED7D0A65
:10325000BDEC048B70BD88EE889A19EE100AFFF75A
:1032600012FF042808BF00F0AFFA18EE900AFFF72B
:103270000AFF054618EE100AFFF705FF044619EE8F
:10328000100AFFF700FF042D18BF052D08D1042CEC
:1032900018BF052C04D1002804BF0220FDF7A7FBAE
:1032A000B0EE490ABDEC048B70BD4200B2EB410F99
:1032B0003AD910F0004F19BFDFED630A9FED630AA2
:1032C000DFED630A9FED630AB0EE481A0A46B1EEDD
:1032D000688A80F00041F0EE418A10460A1A5200D6
:1032E000B2F1807F34D2484010F0004FDFED5A1A1F
:1032F0009FED5A2A1DBFBEEE001A70EEE10A30EEB5
:10330000420AB6EE001A08BF70EEA10A00E040E0E3
:1033100008BF30EE020AB0EE682A01EE482A08EE35
:10332000818AC2EE081A15E011F0004F04BF9FED2C
:103330004C0AF0EE400AD1D010F0004F19BFDFED7B
:10334000490A9FED490ADFED490A9FED490AC5E7A1
:10335000C8EE881A21EEA11A9FED462ADFED462A13
:1033600041EE022A9FED452A01EE222ADFED442A92
:1033700041EE022A9FED432ABDEC048B01EE222A86
:1033800021EE811A01EE020A30EE210A30EE200A07
:1033900070BD4FF07F42B2EB400F28BFB2EB410F40
:1033A00009D2F0EE480AB0EE680ABDEC048BBDE825
:1033B000704000F0FDB940EA01035B0008BF41F036
:1033C000FF410BD0B2EB400F08BFB2EB410F08D169
:1033D00020F0804008EE900A21F0804108EE101A9B
:1033E00018E7B2EB400F12BF5FEA410340F0FF4025
:1033F00001F000413FF40EAFB2EB410F12BF5FEAA4
:10340000400200F0004041F0FF413FF403AF4A00AA
:1034100092EA40033FF5FEAE002AACBF9FED1A0AC8
:103420009FED1A0A68EE808A28EE008A18EE900A4C
:1034300018EE101AEEE60000DB0FC9BFDB0FC93F24
:10344000DB0F4940DB0F49C00000C9BF22AAFDB90C
:103450000000C93F22AAFD390060ED3EC30ACE3705
:1034600000000000000049C022AA7DBA00004940C7
:1034700022AA7D3A2DAD65BD8FB8D53D0FB511BEE1
:1034800061C84C3EA8AAAABE0000804F0000802F51
:1034900010EE101A08B5444A6846B2EB410F28D91D
:1034A0004FF0E640B0EB410F94BF00204FF0FF30EB
:1034B00000900098002861DB60EE000A10F0010F18
:1034C00045D010F0020FDFED391A9FED391A00EEEA
:1034D000E11ADFED381A40EE811A21EEA01AF0EE63
:1034E000400A40EE010A08BFF1EE600AB0EE600A41
:1034F00008BD314B21F0004293423CD911F0004FFE
:10350000DFED2E0A20EE201ADFED2D0A19BF31EE75
:10351000601A71EE200A31EE201A71EE600ABDEEDB
:10352000E01A11EE100A9FED271A00F0030000EEDA
:10353000C10A9FED251A009000EEC10A9FED231AE3
:1035400000EEC10A9FED221A00EEC10AB1E79FED1D
:10355000211A9FED210A10F0020F00EE810A9FED63
:103560001F1A00EE801AB7EE000A00EE810A18BF9B
:10357000B1EE400A08BD00F02FF99AE710EE100AEC
:103580004000B0F17F4F3CBFB7EE000A08BD07D145
:103590004FF00100FDF72BFABDE8084000F00CB930
:1035A000BDE8084000F001B9B61F927E336D4C397A
:1035B000DA82083CA0AA2ABE490E494683F9223F76
:1035C0000000004B0000C93F00A0FD390020A233DD
:1035D0001A61342CB93AB2BACA9F2A3DDDFFFFBE48
:1035E00000B510EE101A2DED028B81B0524A6846DC
:1035F000B2EB410F2ED94FF0E640B0EB410F94BF34
:1036000000204FF0FF3000900098B0EE408A002874
:103610006ADB10F0010F4BD068EE080A9FED471AE5
:103620009FED470A00EE810A9FED461A10F0020F47
:1036300000EE801AB7EE000A00EE810A02BF01B068
:10364000BDEC028B00BD00BF01B0B1EE400ABDEC85
:10365000028B00BD3C4B21F00042934241D911F056
:10366000004FDFED3A0A20EE201ADFED390A19BFCC
:1036700031EE601A71EE200A31EE201A71EE600A06
:10368000BDEEE01A11EE100A9FED321A00F00300B1
:1036900000EEC10A9FED301A009000EEC10A9FEDC6
:1036A0002F1A00EEC10A9FED2E1A00EEC10AABE7F9
:1036B00028EE080A9FED2B1ADFED2B0A10F0020FFF
:1036C00040EE410A9FED291A00EE201A61EE000A31
:1036D000B0EE480A08EE200AB6D101B0BDEC028B6C
:1036E00000BD00F079F88FE718EE100A4000B0F145
:1036F0007F4F0DD218EE100AFFF7C5FC042808BF53
:1037000000F062F8B0EE480A01B0BDEC028B00BDDB
:1037100009D10120FDF76BF901B0BDEC028B5DF81A
:1037200004EB00F049B801B0B0EE480ABDEC028BE2
:103730005DF804EB00F039B8B61F927EB93AB2BA20
:10374000CA9F2A3DDDFFFFBE490E494683F9223F4D
:103750000000004B0000C93F00A0FD390020A2334B
:103760001A61342C336D4C39DA82083CA0AA2ABE87
:1037700010B52DED028BB1EEC08A18EE100A20F0C4
:103780000040C0F1FF40C00F0AD010EE100A20F038
:103790000040C0F1FF40C00F04BF0120FDF727F932
:1037A000B0EE480ABDEC028B10BD30EE000A704747
:1037B00030EE200A70470000DFED020A80EEA00A1A
:1037C00070470000000000009FED020A20EE000A92
:1037D00070470000000000102DE9F0014FF07F421B
:1037E000B2EB410F9FBF4FF0FF310160BDE8F00128
:1037F00070474FF0004242EA0123C1F3C752783AC2
:10380000551112F01F0C434CCCF120067C44C1F33F
:10381000C752A2F178024FEA621204EB820254F816
:10382000254008BFD2E9015612D0556804FA0CF4BD
:1038300025FA06F73C43976805FA0CF527FA06F8CF
:10384000D26807FA0CFCF24045EA08054CEA020689
:10385000A4FB034CA5FB0352A6FB03631D449D423E
:1038600034BF012600261319334416B1934202D9FE
:1038700003E0934201D2012200E00022624402F1FF
:10388000200C9206DC0C42EA443200EE102A5B0364
:10389000DFED210AF8EEC01A00EE103A4FEA9C1C48
:1038A00011F0004FB8EE400AC0F800C020EE201A18
:1038B00000EE105ADFED190AB8EE400A20EE200A99
:1038C00071EE810A70EE800A10EE902A02F5006215
:1038D0006FF30B0200EE902A70EEE11A31EEC11A7E
:1038E000DFED101A30EE411A9FED0D0A20EE800A2E
:1038F00001EE210A9FED0C1A00EE810A04BFBDE81B
:10390000F0017047CCF180510160BDE8F001B1EEEB
:10391000400A7047101A0000000000360000802C9A
:1039200022AAFD29DB0FC92F0000C92F30380A2831
:1039300001D20120704700207047000000B59FEDC4
:10394000091ADFED090A00F015F89FED081ADFEDFE
:10395000080A40EE010ABCEEE00A10EE100A80B23E
:1039600000BD000000008743000000002506ED4078
:103970000000FA43B4EEE00AF1EE10FA02D2B0EE23
:10398000600A7047B4EEC10AF1EE10FAF9DDB0EE4C
:10399000410A704770B50E462DED068B0546F0EED8
:1039A000629AB0EE42AAF0EE61AAB0EE418AF0EE61
:1039B000608AB0EE409A012427E000BF00EE104A72
:1039C000B0EE493A79EEC81AF8EE400A00EE105A05
:1039D0003046B8EE401A80EE810A7AEEC90A3AEE15
:1039E000681A00EE203AF0EE680A40EE010AB0EEE6
:1039F000481A00EE211AB0EE430A00F022F806F150
:103A0000140000F057F8641CE4B2AC42D6D9BDEC07
:103A1000068B70BDFDF74EFEFFF76AF8FEF712FF4A
:103A2000FEF7D6FEFEF72CFFFEF746FFFEF7F6FE8A
:103A300000F047F8FEE701460020842900D0C81CAA
:103A4000704710B504462DED028B92B0B0EE418A5E
:103A5000F0EE608A10EE100A01F0FEFACDE90001E6
:103A600018EE900A01F0F8FACDE9020118EE100AFA
:103A700001F0F2FACDE90401ADF830406846FEF7F6
:103A800043FEBDF8410000EE100ABDF83A00B8EE62
:103A9000401A00EE100ABDF83300F8EE400A00EEBE
:103AA000100A2046B8EE400A00F0FAFB12B0BDEC56
:103AB000028B10BD10B500B9012000F073FD00208D
:103AC00010BD10B500F0EAFD002010BD7FB50D4619
:103AD00004464169B0F9080081B1A16971B1FFF7ED
:103AE000AAFFD4E905128DE80700D4E900102B469F
:103AF000226900F0E6FE039004B070BDFFF79BFF63
:103B000003A9CDE90001208A2B4682B2D4E9001036
:103B100000F0AAFE012801D00020EDE70398EBE7B2
:103B20002DE9F041184C0F460546E6682068001D57
:103B300000F070FC38B9206890F82C100120884003
:103B4000216981432161681C07D137B12168BDE833
:103B5000F0410E48091D00F0A1BC20683544B54273
:103B60004560216805D2A06BBDE8F041091D00F059
:103B70007DBC606B091D00F079FCA06A854200D213
:103B8000A562BDE8F081000014000020C4050020FB
:103B90002DE9F041054600F08DFC2E4CA068401C3C
:103BA000A06020682C4F10B1606940B32DE0256003
:103BB000A068012829D1002606EB860007EB8000CB
:103BC00000F046FC761C072EF6D323488C3000F01C
:103BD0003FFC2148A03000F03BFC1F48B43000F00F
:103BE00037FC1D48C83000F033FC1B48DC3000F0C7
:103BF0002FFC19488C3060631430A06305E0206806
:103C0000E96AC06A884200D82560606A401C606228
:103C1000E96A0120226988401043206101EB81009C
:103C200007EB8000291D00F039FC00F063FC60699F
:103C300000280CD02068E96AC06A884207D2074988
:103C40004FF080500860BFF34F8FBFF36F8FBDE818
:103C5000F081000014000020E804002004ED00E0E2
:103C600010B5044690F8510058B101280CD0022834
:103C70000FD0502080F31188BFF34F8FBFF36F8FA9
:103C8000FEE7206B00F04AFC2046BDE8104000F043
:103C900045BC10BD10484FF47051420706D0C01DFE
:103CA0000D4920F00700411AC1F570510B4A00235D
:103CB0000144C2E900030839183A21F007011160F4
:103CC0004B600B600B1AC0E9001393604FF000408B
:103CD0005360506170470000D80500206800002044
:103CE000144E154CA6F1C8074FF08058DFF84C90E1
:103CF00012E000BF00F0DEFBF068C568281D00F090
:103D000089FBA068401EA0606068401E606000F0F3
:103D1000F1FB2846FFF7A4FF60680028EAD1386865
:103D20000128F9D9C9F80080BFF34F8FBFF36F8F17
:103D3000F2E70000B00500201400002004ED00E0D0
:103D40002DE9F0479A46DDE9098481466FF00303C7
:103D5000206B03EB82021044089E20F007077807CF
:103D600007D0502080F31188BFF34F8FBFF36F8FC0
:103D7000FEE7002561B1002023180A5C83F8342097
:103D80000A5C12B1401C1028F6D384F8435001E0BD
:103D900084F83450072E00D30626E662C4E9116584
:103DA000201D00F060FB04F1180000F05CFB2461B2
:103DB000C6F107006462A061E56484F85050524681
:103DC0004946384600F0C0F82060B8F1000F01D035
:103DD000C8F80040BDE8F08730B5114900E0114651
:103DE0000A688242FBD34B685C18844203D1406866
:103DF00018444860084643681C18944209D1084C8E
:103E0000183C2468A24209D052681A4442600A68E9
:103E100012680260814200D0086030BD0460F9E79A
:103E2000680000200648416B096829B1416BC968E8
:103E3000C9684968816270474FF0FF31FAE70000B6
:103E40001400002008484068401C4FF0500080F3E8
:103E5000118804D0BFF34F8FBFF36F8FFEE7BFF31E
:103E60004F8FBFF36F8FFEE7700000202DE9F04108
:103E70000546002700F048FC324E306808B9FFF7CD
:103E800009FF706905424ED1C5B3083568070ED0E9
:103E900005F00700C0F108000544680707D050206E
:103EA00080F31188BFF34F8FBFF36F8FFEE72DB301
:103EB0007068854237D82348183001460C6801E005
:103EC00020460C466168A94202D221680029F7D138
:103ED00031688C4227D00768216801606068083724
:103EE000411B10290FD96019420708D0502080F3D8
:103EF0001188BFF34F8FBFF36F8FFEE713E0416070
:103F00006560FFF769FF61687068401A7060B268A9
:103F1000904200D2B060706901430020C4E9000102
:103F2000F068401CF06000F05DFD780707D050207D
:103F300080F31188BFF34F8FBFF36F8FFEE73846D2
:103F4000BDE8F0815000002010B5031F4FF08074D1
:103F50001C601B1F21F001011960191F044B0B602D
:103F600014390A60091F6FF0020244380A6010BD5C
:103F7000453E000870B54FF4FA702DED028BFFF747
:103F800099FD9FED328A4FF47A70B0EE481AF0EE48
:103F9000480AB0EE480A00F083F940F2DC50FFF71F
:103FA00089FD4FF4FA642046B0EE481AF0EE480A54
:103FB0009FED270A00F074F940F6C4152846FFF774
:103FC00079FD2046B0EE481AF0EE480AB0EE480AF5
:103FD00000F066F92846FFF76DFDDFED1E8A2046EA
:103FE000B0EE481AF0EE680AB0EE480A00F058F950
:103FF0002846FFF75FFD2046B0EE481AF0EE480A6B
:10400000B0EE480A00F04CF92846FFF753FD204671
:10401000B0EE681AF0EE480AB0EE480A00F040F937
:104020002846FFF747FD2046B0EE481AF0EE480A52
:10403000B0EE480A00F034F92846FFF73BFDBDEC2E
:10404000028B0020BDE8704000F0D2BA00000000F2
:1040500000008743000034432DED048B44F62060BC
:10406000FFF728FD9FED2D8ADFED2D8A40F2DC5011
:10407000B0EE480AF0EE680AB0EE401AFFF7E1FC35
:104080004FF4FA60FFF716FD9FED269ADFED269AB2
:104090004FF4FA7464210A20F0EE482AB0EE682A40
:1040A000F0EE491AB0EE481AF0EE680AB0EE480A8F
:1040B000FFF770FC64210A20F0EE482AB0EE692A6E
:1040C000F0EE491AB0EE481AF0EE680AB0EE490A6E
:1040D000FFF760FC64210A20F0EE482AB0EE692A5E
:1040E000F0EE481AB0EE481AF0EE690AB0EE490A4E
:1040F000FFF750FC64210A20F0EE482AB0EE682A4F
:10410000F0EE481AB0EE481AF0EE690AB0EE480A2E
:10411000FFF740FC2046FFF7CDFCBBE7CDCCCC3D04
:10412000CDCC4CBDCDCC4C3ECDCC4C3D2DED028B01
:1041300046F2A810FFF7BEFCFEF738FB154D164CF3
:10414000164F9FED178A00264FF002084FF0010925
:104150004FF4FA6A40F6C41B2878022815D120785B
:1041600098B997EC020A50462E7084F80090B0EE91
:10417000481AFFF766FC5846FFF79CFC84F800805D
:104180004FF47A70FFF796FC26700A20FFF792FC36
:10419000E2E7000084000020850000201842002093
:1041A000CDCCCC3D2DED028BFEF754FC334D344E7F
:1041B000344CB0EE008A00BFFEF7F8FA2078E0B386
:1041C0003148DFED320A0088A0F5FA7000EE100ADF
:1041D0003078B8EEC00A411E0229C0EE201A46D837
:1041E00001289FED2B0A04D0022805D0032805D012
:1041F0000AE0B5F8331003E0698F01E0B5F841102B
:1042000000EE101AB8EE400A30EE610AF0EEC00A75
:10421000F4EEC80AF1EE10FA29DDB5F83310DFED3F
:104220001D0A40EE201A00EE101A698F00EE901A57
:10423000B8EE400AF8EE600A00E01AE0B5F8411066
:10424000012801EE101AB8EE411A04D0022805D058
:10425000032806D007E0B0EE610A04E0F0EE610A40
:1042600001E0B0EE611A4FF4FA7000F019F8002086
:1042700020703220FFF71EFC9EE700004442002021
:104280007D0000207E000020820000202506ED40F9
:1042900000000000CDCC4C3F1420FFF70BFCFBE7E7
:1042A00070B5154C05462DED028B012084F83200C7
:1042B000B0EE418AF0EE608A3034FFF73FFBA4F89D
:1042C0000300258002206072B0EE680AFFF736FB1B
:1042D0006081258003202074B0EE480AFFF72EFB92
:1042E000A4F8110025802A46BDEC028B0321BDE80D
:1042F00070400148FEF7FEBA4442002010B500EEBF
:10430000100A2DED028BB1EEC08A18EE100A20F0D3
:104310000040C0F1FF40C00F0AD010EE100A20F09C
:104320000040C0F1FF40C00F04BF0120FCF75FFB5D
:1043300018EE100ABDEC028B10BD00007CB500F039
:10434000B9F804241B48A501CDE9004000232A4602
:1043500019A11D4800F088FA16490520091DCDE96C
:10436000000100232A4619A11C4800F07DFA1148DB
:1043700000230830CDE900402A4619A11C4800F06E
:1043800073FA0C4902200C31CDE90001020200232E
:1043900018A11C4800F068FA064800231030CDE947
:1043A0000040802218A11A4800F05EFABDE87C4067
:1043B00000F0A0B888000020726571756972656DA3
:1043C000656E745F31000000753F0008726571759D
:1043D0006972656D656E745F3200000059400008B7
:1043E000726571756972656D656E745F330000008A
:1043F0002D410008726571756972656D656E745F37
:1044000034000000A541000873656E736F720000F0
:1044100099420008D0E9013201699A60D0E901238C
:104420005A604A68824201D182684A600022026171
:104430000868401E0860086870470000034B03606E
:1044400003F1540008608020106070479C00002039
:1044500000F108014FF0FF32C0E90112C1600161B3
:1044600000210160704700210161704730B50B6881
:104470005A1C02D000F1080202E0026904E0224660
:10448000546825689D42FAD953684B6099608A60E8
:10449000516008610168491C016030BD42684A6092
:1044A00093688B6093685960916008610168491C4A
:1044B00001607047502080F31188BFF34F8FBFF326
:1044C0006F8F0A494868401C486001280CD1084891
:1044D000006810F0FF0F07D0502080F31188BFF361
:1044E0004F8FBFF36F8FFEE7704700007000002012
:1044F00004ED00E00849486828B1401E486001D139
:1045000080F311887047502080F31188BFF34F8FDC
:10451000BFF36F8FFEE700007000002070B5002829
:104520002AD0164DA0F1080460686969084207D1D5
:10453000502080F31188BFF34F8FBFF36F8FFEE7DA
:1045400022683AB1502080F31188BFF34F8FBFF338
:104550006F8FFEE78843606000F0D6F86068696896
:10456000084468602046FFF737FC2869401C286132
:10457000BDE8704000F036BA70BD00005000002069
:104580004FF0E02000210161816105494FF47A720A
:104590000968B1FBF2F1491E4161072101617047D1
:1045A0001000002010B5020014D00F48006B38B185
:1045B000502080F31188BFF34F8FBFF36F8FFEE75A
:1045C00000F0A2F800211046FFF7AAFA00F00AFA5C
:1045D000002807D105494FF080500860BFF34F8F86
:1045E000BFF36F8F10BD00001400002004ED00E049
:1045F00070B50546FFF75EFF254C05B92568281DF7
:10460000FFF708FF58B9E86A224A00EB800152F828
:10461000211021B901218140206988432061A86AC5
:1046200018B105F11800FFF7F5FE606A401C6062E2
:104630002068854208D11748291DC830FFF72EFF92
:104640006068401C606007E0A068401EA0602846CB
:10465000FFF706FBFFF7E6FBFFF74CFF606900285A
:1046600014D02068854211D1206B38B1502080F3DE
:104670001188BFF34F8FBFF36F8FFEE706494FF0EE
:1046800080500860BFF34F8FBFF36F8F70BD000085
:1046900014000020E804002004ED00E010B586B00E
:1046A0000024039405AA04A903A80494FFF7C6FEF6
:1046B000DDE903010094CDE9011000230EA11048AB
:1046C000059A00F0FEF80F490028C86211D050206A
:1046D00080F31188BFF34F8FBFF36F8F4FF0FF3020
:1046E000886201204861CC6006B0BDE8104000F04F
:1046F00041B806B010BD000049444C450000000020
:10470000E13C0008140000200248016B491C0163D1
:1047100070470000140000201448016B11B1012102
:10472000C16170470021C1610169B1FA81F1C1F134
:104730001F0101EB81020E4951F822306BB101EBF0
:10474000820101F108034A6852684A609A4201D125
:1047500052684A60D16801607047502080F3118828
:10476000BFF34F8FBFF36F8FFEE7000014000020F0
:10477000E80400201CB537480168374A914207D148
:10478000502080F31188BFF34F8FBFF36F8FFEE788
:1047900000683149491E884207D1502080F31188B2
:1047A000BFF34F8FBFF36F8FFEE72C49087801905E
:1047B000FF20087008788DF800009DF800009DF833
:1047C000002000F0F000904207D0502080F31188C4
:1047D000BFF34F8FBFF36F8FFEE79DF80000204CB3
:1047E00000F0500020700720A06005E09DF8002038
:1047F00052008DF80020401E9DF800201206F5D4CE
:10480000A060032807D0502080F31188BFF34F8F9A
:10481000BFF36F8FFEE74FF44070A06001980870FF
:104820000C482030016841F470010160016841F0DA
:1048300070410160FFF7A4FE00206060FBF726FDD9
:104840000848016841F040410160FBF70BFD002082
:104850001CBD000000ED00E071C20F4100E400E06B
:104860007000002034EF00E02DE9FF5F8346DDE9B2
:104870000E87994616468A469000FFF7F7FA05001C
:104880001CD05420FFF7F2FA040014D00020256356
:1048900084F85100CDE90240CDE900874B4632460D
:1048A00051465846FFF74CFA2046FFF771F90120B0
:1048B00004B0BDE8F09F2846FFF730FE4FF0FF3010
:1048C000F6E7F0B585B0DDE90B640A9DA6B1DCB171
:1048D000542700972663022684F85160002604AF0F
:1048E000CDE90246CDE90057FFF72AFA2046FFF747
:1048F0004FF9049805B0F0BD502080F31188BFF344
:104900004F8FBFF36F8FFEE7502080F31188BFF306
:104910004F8FBFF36F8FFEE72DE9F0412F4C00263C
:10492000206B28B1A069401CA0613046BDE8F08131
:10493000E5686D1CE56013D1606B006838B15020EC
:1049400080F31188BFF34F8FBFF36F8FFEE7606B6B
:10495000A16B6163A063206A401C2062FFF762FACA
:10496000A06ADFF87C80854209D3606B0068A0B143
:10497000606BC068C7687868854211D2A062206801
:10498000C06A00EB800158F82100012800D90126F7
:10499000E0690028C9D00126C7E74FF0FF30EDE7F6
:1049A000381DFFF737FDB86A18B107F11800FFF797
:1049B00031FDF96A0120226988401043206101EB32
:1049C000810108EB8100391DFFF768FDF86A216855
:1049D000C96A8842C9D30126C7E700001400002035
:1049E000E80400202DE9F0472C4D00242746286BD1
:1049F00038B1FFF75FFD286B401E2863286B40B17C
:104A000046E0502080F31188BFF34F8FBFF36F8FC4
:104A1000FEE7A968224E0120D1B3A6F1B409804671
:104A20003068E8B1F068C46804F11800FFF7F2FCE0
:104A3000201DFFF7EFFCE06A2A6908FA00F1114334
:104A4000296100EB800109EB8100211DFFF726FDA4
:104A5000E06A2968C96A8842E2D3C5F81C80DFE7AA
:104A60000CB1FFF7DFF9AC6944B14646FFF754FFDC
:104A700000B1EE61641EF9D10020A861E86938B187
:104A80000849012738070860BFF34F8FBFF36F8FC6
:104A9000FFF730FD3846BDE8F08700001400002025
:104AA0009C05002004ED00E010B500290AD008782C
:104AB000002807D005487844FCF768FA002801D0A0
:104AC000002010BD0248784410BD0000B607000069
:104AD000AE07000021F00042A2F16052B2F5801F43
:104AE00001F0004328BFD2F17F6C0BD95FEA001CB4
:104AF00043EAC20242EB507018BF704728BF20F053
:104B000001007047B2F5801FBCBF184670474FEADE
:104B1000410C1CF5001F02D2084600F013BB70B513
:104B200000F05CF900000089FFF7F6BF4FF000408D
:104B3000A0F580007047000010B591EA030F48BF50
:104B400083F0004300F1A681841A71EB030C05D2B7
:104B5000121943EB0C03001B61EB0C01DFF824E19D
:104B60004FEA1154A4EB135C1EEA430F18BF9EEAF0
:104B7000445F73D023EA0E03DCF1200E21EA0451D6
:104B800043F4801332D322FA0CFE10EB0E0023FA0A
:104B90000CFE41EB0E01CCF1200E03FA0EFE10EBE1
:104BA0000E0051F10001B1F5801FCCF1200E32D280
:104BB00001EB045112FA0EF2BDE8104058BF7047E5
:104BC000401C38BF5FEA420218BF7047002814BF7C
:104BD00020F0010041F100014FEA410313F5001FED
:104BE00038BF7047A1F1C04100F046B9012A43EB3C
:104BF0000302ACF1200CDCF11F0E32BF4FF0000EAF
:104C000023FA0CF310EB030041EB0451B4EB115FFA
:104C1000D0D0A1EB045101F5801149085FEA3000C2
:104C200001EB04510ED350F1000038BF12FA0EFE12
:104C300008D1BDE81040C9E7401C38BF5FEA420216
:104C4000CAD1C3E7BDE810404FEA410313F5001F86
:104C500038BF7047A1F1C04100F00EB99EEA445F31
:104C600008D011EA5E0FBDE8104004BF01F000411A
:104C700000207047BDE8104070B500F0AFF800BFED
:104C800064FBBE3E0000E0FFDFF848C170B51CEADF
:104C9000111E1EBF1CEA13159EEA0C0F95EA0C0F9D
:104CA00000F06F8081EA030423EA4C134EEAD47EBD
:104CB00021EA4C1141F4801143F48013AE44A1FB6E
:104CC000024CA0FB0365AEF17F7E361955EB0C0557
:104CD000A1FB034C4CF10003A0FB021C16EB0C06DD
:104CE000654153F10003094218BF46F0010613F471
:104CF000007F0BD14FEA03314FEA0530340341EA1C
:104D0000155140EA16506FF003020AE04FEAC32142
:104D10004FEAC520F40241EA555140EA56506FF07F
:104D2000020202EB2E4201EB025585EACE710AD057
:104D30005FEA440C18BF24F0004450F1000041F138
:104D4000000120EAD47040F2FE7C624500D270BDC2
:104D5000A84214BF4FF080444FF04044002E08BFDB
:104D60000024BEF1806FA8BFA1F1C041BDE8704032
:104D700080F282804FF0000001F1C04101F000415B
:104D800070479EEA0C0F0CEA131518BF95EA0C0F3A
:104D900006D04FF0000081EA030E0EF0004170BD16
:104DA00000F01CF88900013E00F007B800F009B8D7
:104DB0004FEA430C5FEA5C5C08D081EA030100F033
:104DC0005BB84FEA410C5FEA5C5CF6D14FF0000043
:104DD000014970470000FF070000F87F0EF1020E46
:104DE0002EF0030E5EF8046B364205D4012A43EB25
:104DF000030515F5001F12D8012841EB010C1CF525
:104E0000001F0CD80ED14FEAD17C15F5001F0CEB1A
:104E10004C0C0CF1020C08BF4CEBD37C04E04FF0BF
:104E2000080C01E04FEAD37C0CEB4C0526FA05F6A2
:104E300006F00706B6F1040C06D20EEB860CBDE8B0
:104E400070404CF0010C6047DFE80CF0090B0202E7
:104E50004FF000414FF00000A1F5002170BD194650
:104E60001046012851EB010418BFD4F5001484BF8B
:104E7000002001F0004170BD0808A0F500114FEAC4
:104E80003101704710B591EA030F48BF83F000432A
:104E90003FF55AAE841A71EB030C07D212198CF04D
:104EA000004C43EB0C03001B61EB0C01DFF8A4E1A9
:104EB0004FEA1154A4EB135C1EEA430F18BF9EEA9D
:104EC000445F00F0B08023EA6E03524221EA0451AD
:104ED000C3EB6E0338BF5B1EDCF1200E25D322FA34
:104EE0000CFE10EB0E0043FA0CFE41EB0E01CCF170
:104EF000200E03FA0EFE10EB0E0051F10001CCF172
:104F0000200E29D412FA0EF201EB0451BDE8104034
:104F100058BF7047401C1CBFB2F1004F70470028BB
:104F20000CBF491C20F00100704712EB020E43EB4E
:104F3000030218BF4FF0010E4EEA4202ACF1200C02
:104F4000DCF11E0E54D943FA0CFE10EB0E0051F1A9
:104F5000FF31CCF11E0ED5D50EF1010E12FA0EFE68
:104F6000404141EB010101EB445C5FEA5C5C10D91C
:104F700010EBDE7001EB045138BFBEF1004FBDE80D
:104F8000104018BF704700280CBF491C20F00100DA
:104F9000704730D24FEAD42C11F5001124F400648C
:104FA0001BD0B1FA81F20B3AA41AA41ED2F120034D
:104FB000914030FA03F31943904001EBCC71002C7F
:104FC00001EB0451BDE81040A8BF704701F1C0419A
:104FD0004FF0000001F000417047B0FA80F310FA82
:104FE00003F100D110BDE41A173C4805C90AE4E7F3
:104FF00001EB045110BD491001EB0451BDE8104014
:105000004FEA300002E04FF0000170474A0008BF4D
:105010000042F8D0B2F5001F28BF704701F00041F0
:105020004FF0000070479EEA445F07D011EA5E0F20
:10503000BDE8104004BF002100207047BDE81040CB
:1050400070B5FFF7CBFE00BF40DFF63E83F00041B6
:10505000104670470000E0FF43004FEAD30C4FEAD0
:105060003C0C43401FBF40070CF1605113F0FE4F52
:1050700070471CF0006F03D100200CF00041704716
:105080000CF0004343EA507010B540EACC0000F049
:105090000EF800BF000000924FEA0001FFF7ECBEDF
:1050A0004FF000414FF00000A1F5002170470EF1D4
:1050B000020E2EF0030E5EF8044B244204D44FEA95
:1050C0004102B2F17F4F11D84FEA4003B3F17F4F55
:1050D0000CD80ED14FEAD07CB2F17F4F0CEB4C0CC8
:1050E0000CF1020C08BF4CEBD17C04E04FF0080C33
:1050F00001E04FEAD17C0CEB4C0324FA03F404F0FA
:105100000704B4F1040C06D20EEB840CBDE8104089
:105110004CF0010C6047DFE80CF0070802024FF08A
:105120000040A0F5800010BD0846420018BFD2F133
:10513000807288BF00F0004010BD4FF04070E1EE7B
:10514000100A7047FF2141EAD050C00570470000A7
:1051500040520008752A000800000000000000000E
:105160008000000000000000000000000006101693
:1051700000061016000000000000000001020304F9
:1051800006070809000000000102030423000000D4
:10519000000000000000000000000000000000000F
:1051A00000000000000000000000000000000000FF
:1051B00000000000000000000000000000000000EF
:1051C00000000000000000000000000000000000DF
:1051D00000000000000000000000000000000000CF
:1051E00000000000000000000000000000000000BF
:1051F00000000000000000000000000000000000AF
:105200000000000000000000000000000400000892
:10521000000000000000000200010000100000007B
:10522000000000006E83F9A22915444ED15727FCD7
:10523000C0DD34F5999562DB4190433CAB6351FE90
:1052400064656661756C745461736B007C5300080F
:10525000000000209C000000C40100081854000851
:105260009C00002054480000E001000810010000EC
:1052700043000000F8FFFFFF004040404040404036
:105280004040414141414140404040404040404019
:1052900040404040404040404005020202020202BD
:1052A000020202020202020202202020202020200C
:1052B0002020200202020202020290909090909020
:1052C00010101010101010101010101010101010DE
:1052D0001010101002020202020288888888888852
:1052E000080808080808080808080808080808083E
:1052F0000808080802020202400000000000000046
:10530000000000000000000000000000000000009D
:10531000000000000000000000000000000000008D
:10532000000000000000000000000000000000007D
:10533000000000000000000000000000000000006D
:10534000000000000000000000000000000000005D
:10535000000000000000000000000000000000004D
:10536000000000000000000000000000000000003D
:10537000000000000000000000000000000000002D
:105380000100000010000000000000000024F400F4
:10539000000000000000000000000000000000000D
:1053A00000000000000000000000000000000000FD
:1053B00000000000000000000000000000000000ED
:1053C00000000000000000000000000000000000DD
:1053D00000000000000000000000000000000000CD
:1053E00000000000000000000000000000000000BD
:1053F000AAAAAAAA00000000000000000000000005
:10540000000000000000000000000000000000009C
:08541000000000000000000094
:040000050800018965
:00000001FF
