:020000040800F2
:1000000060480020F1020008071F0008451C000896
:10001000051F0008D7080008312400080000000070
:100020000000000000000000000000003102000895
:100030006D090008000000008D020008F11F000893
:100040000B0300080B0300080B0300080B03000858
:100050000B0300080B0300080B0300080B03000848
:100060000B0300080B0300080B0300080B03000838
:100070000B0300080B0300080B0300080B03000828
:10008000D9080008E50800080B0300080B03000866
:100090000B0300080B0300080B0300080B03000808
:1000A0000B030008A92000080B0300080B0300083D
:1000B0000B0300080B0300080B0300080B030008E8
:1000C0000B0300080B0300080B0300080B030008D8
:1000D0000B0300080B030008252400080B0300088D
:1000E0000B0300080B0300080B0300080B030008B8
:1000F0000B0300080B0300080B0300080B030008A8
:100100000B0300080B0300080B0300080B03000897
:100110000B0300080B0300080B0300080B03000887
:100120000B0300080B0300080B0300080B03000877
:100130000B0300080B0300080B0300080B03000867
:100140000B0300080B0300080B0300080B03000857
:100150000B0300080B0300080B0300080B03000847
:100160000B0300080B0300080B0300080B03000837
:100170000B0300080B0300080B030008000000003D
:100180000B0300080B03000800F002F800F041F830
:100190000AA090E8000C82448344AAF10107DA45E2
:1001A00001D100F036F8AFF2090EBAE80F0013F0F3
:1001B000010F18BFFB1A43F0010318472443000046
:1001C00044430000103A24BF78C878C1FAD85207D7
:1001D00024BF30C830C144BF04680C6070470000C1
:1001E0000023002400250026103A28BF78C1FBD840
:1001F000520728BF30C148BF0B607047752900F017
:100200004B81002070471FB504F0E1F81FBD10B509
:1002100010BD00F02BFB1146FFF7F5FF02F0D8FDF3
:1002200000F049FB03B4FFF7F2FF03BC00F04CFB06
:100230002C4B19680868B0E8F04F80F30988BFF3C9
:100240006F8F4FF0000080F31188704700000000AE
:1002500008480068006880F308884FF0000080F3C9
:10026000148862B661B6BFF34F8FBFF36F8F00DFA4
:1002700000BF00BF08ED00E0DFF80C00016841F4AA
:1002800070010160704700BF88ED00E0EFF3098066
:10029000BFF36F8F134B1A681EF0100F08BF20EDCD
:1002A000108A20E9F04F106009B44FF0500080F33D
:1002B0001188BFF34F8FBFF36F8F03F04DFB4FF0EB
:1002C000000080F3118809BC19680868B0E8F04F95
:1002D0001EF0100F08BFB0EC108A80F30988BFF33E
:1002E0006F8F704714000020EFF305807047000007
:1002F0000948804709480047FEE7FEE7FEE7FEE7BA
:10030000FEE7FEE7FEE7FEE7FEE7FEE704480549F5
:10031000054A064B70470000992000088901000833
:1003200060420020604800206044002060440020BB
:1003300053EA020C00F069802DE9F04B4FF0000603
:10034000002B1FBFB3FA83F503FA05F424FA05F670
:100350005E4012BF1643B2FA82F502FA05F4C5F107
:1003600020051EBF22FA05FC44EA0C04203556EA9B
:10037000044C4FEA144418BF641C4FF000084FF0BF
:100380000009904271EB030C39D3002919BFB1FA6F
:1003900081F701FA07F6B0FA80F700FA07F6C7F11D
:1003A00020071EBF20FA07FC46EA0C062037B6FBE2
:1003B000F4FCA7EB0507103F07F01F0BCBF120065D
:1003C0000CFA0BFB2CFA06F644BFB3460026202F8E
:1003D000A4BF5E464FF0000B5BEA060C08BF4FF06F
:1003E000010B19EB0B09ABFB027C48EB0608C01BA9
:1003F00006FB02CC0BFB03CC71EB0C01C1E70B46F7
:10040000024641464846BDE8F08B13B54FF0000068
:100410004FF00001AFF30080BDE81C4070470000C2
:100420000FB41CB5074B06AA7B446946009005989B
:1004300000F0FBF90020694600F00AFA1CBC5DF8E8
:1004400014FB00002504000070B5044685690068AF
:10045000C10601D5302600E02026C00707D070BDB8
:10046000D4E9012130469047206A401C20626D1E6D
:10047000F6D570BD70B5044685690078C00707D110
:1004800070BDD4E9012120209047206A401C2062E1
:100490006D1EF6D570BD00002DE9F0410646002422
:1004A00010687529314616A510D0AFF300800028DA
:1004B00002DA404213A507E031688A0701D512A588
:1004C00002E0490704D511A5012401E0AFF3008043
:1004D00000210A2206F1240709E0B0FBF2FCB0FB80
:1004E000F2F302FB1C00303078541846491C0028F7
:1004F000F3D123462A463046BDE8F04100F036B934
:10050000000000002D0000002B0000002000000073
:100510002DE9F05F894604464FF0000ADFF824B168
:10052000FB44C0F820A02046E168884700287DD021
:10053000252806D0D4E901219047206A401C20627A
:10054000F1E700255F462046E168884720280646F7
:1005500007DB312E05D2B81910F8200C08B105437D
:10056000F1E7A80701D525F00405C4F81CA0002771
:10057000C4F818A02A2E09D0304602F0ADFB38B3DB
:1005800004EB8708303EC8F8186019E059F8041BDE
:10059000204604EB87029161E1688847012F0646F7
:1005A00018D1E069002820DA25F020051DE0D8F8F0
:1005B000180000EB800006EB40003038C8F8180047
:1005C0002046E1688847064602F086FB0028EED107
:1005D000012F0AD02E2E08D12046E16888477F1CC3
:1005E0000646022F45F02005C4DBA069002803DA87
:1005F000404245F00105A061E80701D025F0100553
:10060000A6B1A6F14100192802D8203645F40065AC
:100610004A463146204625604D46FFF7EFFD60B162
:10062000012807D0ED1D25F0070000E007E000F1EC
:10063000080978E705F1040975E730467AE7206A8A
:10064000BDE8F09F7C3F000010B5431C02E010F8AD
:10065000011B71B18107FAD14FF0013202C88C1A27
:100660008C4314EAC211F9D0C01A0A0603D0C01E86
:1006700010BDC01A10BD0A0401D0801E10BD0902B1
:10068000FCD0401E10BD421E12F8013F002BFBD1D2
:1006900011F8013B002B02F8013BF9D1704710B56E
:1006A000203AC0F00B80B1E81850203AA0E818506A
:1006B000B1E81850A0E81850BFF4F5AF5FEA027C2B
:1006C00024BFB1E81850A0E8185044BF18C918C09A
:1006D000BDE810405FEA827C24BF51F8043B40F83B
:1006E000043B08BF7047D20728BF31F8023B48BF20
:1006F00011F8012B28BF20F8023B48BF00F8012B5E
:1007000070474FF0000200B51346944696462039D4
:1007100022BFA0E80C50A0E80C50B1F12001BFF4BA
:10072000F7AF090728BFA0E80C5048BF0CC05DF820
:1007300004EB890028BF40F8042B08BF704748BF6E
:1007400020F8022B11F0804F18BF00F8012B7047E2
:1007500070477047704710B500F080F8006810BD12
:1007600010B5044600F07AF8046010BD2DE9F0479A
:100770000D4699469246044600F124080168880611
:1007800004D5E06921F01001216000E00120A842B9
:1007900001DD471B00E00027A1697A1902EB09007F
:1007A000081AA0612078C00602D42046FFF74CFE4C
:1007B000002608E0D4E901211AF806009047206AD3
:1007C000401C761C20624E45F4DB2078C0060AD51A
:1007D0002046FFF739FE06E0D4E90121302090479A
:1007E000206A401C2062381EA7F10107F4DC07E0F4
:1007F000D4E9012118F805009047206A401C2062C6
:10080000281EA5F10105F3DC2046FFF733FE207812
:10081000000602D50220BDE8F0870120FBE70000BA
:1008200001694A1C02610878704700B58FB0CDE9B4
:1008300001310021059105497944CDE903101146A4
:100840006846FFF765FE0FB000BD0000E5FFFFFF43
:100850000A6802F8010B0A60704700000048704700
:100860000042002000487047004200207546FFF714
:10087000F9FFAE4605006946534620F0070085465D
:1008800018B020B5FFF742FDBDE820404FF000064C
:100890004FF000074FF000084FF0000B21F0070168
:1008A000AC46ACE8C009ACE8C009ACE8C009ACE8AB
:1008B000C0098D46704710B50446AFF3008020464E
:1008C000BDE81040FFF7AEBC01491820ABBEFEE703
:1008D000260002007047FEE7014800F0A5B80000BE
:1008E00038030020014800F09FB800009803002062
:1008F00001681823CAB2103AB2FBF3F2054B6FF34A
:100900000901032A9B5CC36500D9091D816508465E
:10091000704700000044000810B5014600208B69B4
:100920008A6A4FF0C07453B1B3F5005F15D072B14D
:10093000012A0CD0022A0AD0032A09D104E01AB1F4
:10094000012A06D0022A03D1C96AC90100D50120B3
:1009500010BDC96AA142FAD010BD002AF7D0012A01
:10096000F2D0022AF3D0032AF3D010BD704772B63A
:10097000FEE72DE9F0410446876D00F087FA064650
:1009800094F835000025022806D08020606584F8A0
:1009900034500120BDE8F0812068016821F0160183
:1009A00001602068416921F080014161206C08B933
:1009B000A06C20B12068016821F008010160206866
:1009C000016821F0010101600CE000F05FFA801B7A
:1009D000052807D920206065032084F8350084F8B5
:1009E0003450D7E720680068C007EED194F85C1057
:1009F0003F208840B860012084F8350084F83450E6
:100A00000020C7E790F83510022903D08021416506
:100A100001207047052180F835100068016821F039
:100A200001010160002070472DE9F84304464FF0B2
:100A30000009CDF8009063484FF41651A56D006889
:100A4000B0FBF1F72E6894F85C10082000FA01F171
:100A500031420FD021680A6852070BD50A6822F08C
:100A600004020A6094F85C108840A860606D40F051
:100A70000100606594F85C104FF0010808FA01F07D
:100A8000304208D021684969090604D5A860606D24
:100A900040F00200606594F85C1004208840304209
:100AA00008D021680968890704D5A860606D40F006
:100AB0000400606594F85C1010208840304218D023
:100AC00021680968090714D5A860206801684903EE
:100AD00004D50068000308D5A16C07E00168C905CA
:100AE00003D4016821F008010160216C09B120469E
:100AF000884794F85C1020208840304231D021682B
:100B00000968C9062DD5A86094F835000528206825
:100B1000016806D0490347D5006800031DD4616C05
:100B20001CE021F0160101602068416921F080017C
:100B30004161206C08B9A06C20B12068016821F0E7
:100B40000801016094F85C103F208840A86084F898
:100B5000358084F83490216D1FE0E16B09B12046A7
:100B60008847606D00282BD0606DC00714D0052029
:100B700084F835002068016821F0010101600098C7
:100B8000401C0090B84203D820680068C007F6D126
:100B900084F8358084F83490E16C002910D001B0DD
:100BA0002046BDE8F04308470168C905D5D401686F
:100BB00021F01001016084F8358084F83490CCE78E
:100BC000BDE8F883100000202DE9F041044600F054
:100BD0005DF906465CB1022084F83500002584F8F2
:100BE00034502068016821F0010101600DE001200E
:100BF000BDE8F08100F04AF9801B052805D92020C6
:100C00006065032084F83500F2E720680068C007BB
:100C1000F0D12268116820480140D4E9010318434B
:100C2000D4E903363343184363691843A36918436F
:100C3000E3691843236A18430843616A042903D10E
:100C4000D4E90B1319430843106020684069666AB1
:100C500020F0070130460E43012704280CD1A06A7A
:100C60000643E06A40B12046FFF756FE20B140201F
:100C7000606584F83570BAE7206846612046FFF762
:100C800037FE94F85C203F2191408160656584F8CF
:100C900035700020ACE700003F8010F02DE9F84FE0
:100CA000DFF8BCA10022012503264FF00F090AF14D
:100CB000040BAAF1040E00BF0B6805FA02F42340EE
:100CC000A34270D10F7907F00307012F01D0022F43
:100CD00016D187684FEA420806FA08FC27EA0C0793
:100CE000D1F80CC00CFA08FC4CEA070CC0F808C09C
:100CF0004768A7430C79C4F3001494403C43446014
:100D00000C79E443A4070AD0C4684FEA420C06FAFF
:100D10000CF7BC438F6807FA0CF72743C7600C79C0
:100D200004F00304022C12D1D40800EB840CDCF88C
:100D300020405707FF0E09FA07F824EA0804D1F803
:100D4000108008FA07F848EA0408CCF82080046804
:100D50004FEA420C06FA0CF7BC430F7907F0030781
:100D600007FA0CF7274307604C6814F4403F70D033
:100D70003C4C276847F480472760246822F003072B
:100D800004F480440094384C07EB040CDCF8084869
:100D900097074FEA177809FA08F7BC43334FB84270
:100DA00002D1002724E054E0314FB84201D101279D
:100DB0001EE0304FB84201D1022719E02E4FB84251
:100DC00001D1032714E02D4FB84201D104270FE0D1
:100DD0002B4FB84201D105270AE02A4FB84201D172
:100DE000062705E0284FB84201D1072700E0082771
:100DF00007FA08F72743CCF80878DAF80040574696
:100E0000D1F804C09C435FEACC2C00D51C433C6065
:100E1000DBF800405F46D1F804C09C435FEA8C2CAD
:100E200000D51C433C60DEF800407746D1F804C092
:100E30009C435FEA8C3C00D51C433C60084F083F54
:100E40003C68D1F804C09C435FEACC3C00D51C430D
:100E50003C60521C102AFFF42FAFBDE8F88F000051
:100E6000083C01404438024000300140000002408C
:100E70000004024000080240000C02400010024042
:100E80000014024000180240001C02400148806823
:100E90007047000004000020024881680278114475
:100EA00081607047040000200B4810B5016841F4D0
:100EB00000710160016841F480610160016841F4E2
:100EC00080710160032000F099F80F2000F006F80F
:100ED00000F04AF8002010BD003C024030B5054645
:100EE0001C4887B00024016841F0010101600068DE
:100EF00006A900F00100009001A800F02BF900F015
:100F000059F91549154AB0FBF1F11548491E02601F
:100F100040F2E732C0E90324C0E90114846100F023
:100F200043FB040012D10E4800F06CFB04000DD10D
:100F3000192000F035F8102D07D20022294619207B
:100F400000F03CF80748056000E0012407B02046A7
:100F500030BD00004438024040420F000000014014
:100F6000F8030020080000200C4882B0016841F41A
:100F700080410160006800F4804000900748001F35
:100F8000016841F0805101600068002200F080504B
:100F900000900F21901E02B000F010B844380240BB
:100FA000002809DB00F01F02012191404009800068
:100FB00000F1E020C0F8001170470000F0B40E4BC3
:100FC0001B680C46C3F30223C3F10705042D00D9A7
:100FD0000425191D072901D2002300E0DB1E01268C
:100FE00006FA05F1491E214099409E40761E1640A2
:100FF0003143F0BC01F030BA0CED00E0064900F0DE
:10100000070208684FF6FF03184040EA0220034A2F
:1010100010430860704700000CED00E00000FA0586
:101020002DE9F0470E46050065D0DFF81481D8F8A9
:101030000000F7B200F00700B04207D288F8007055
:10104000D8F8000000F00700B04254D128683D4CA9
:10105000810712D5400703D5206840F4E050206096
:101060002878000703D5206840F46040206020689D
:10107000A96820F0F000084320602878C0072DD030
:10108000304968680839012812D0022813D0032893
:1010900011D00968890700292DDA216821F00301A0
:1010A00001432160FFF7F2FE814641F2883A0EE0EB
:1010B00009688903EFE709688901ECE7FFF7E6FEB5
:1010C000A0EB0901514502D90320BDE8F087206853
:1010D000696800F00C00B0EB810FEFD1D8F8001078
:1010E000404601F00701B14207D90770006800F0DF
:1010F0000700B04201D00120E7E72878400705D576
:101100002068E96820F4E050084320602878000750
:1011100006D52068296920F4604040EAC1002060BB
:1011200000F058F82168084AC1F30311515CC84027
:101130000649086006480068FFF7D0FE0020C4E7B3
:10114000003C02400838024008440008100000201B
:10115000080000200F2202600C4A136803F003030A
:101160004360136803F0F0038360136803F4E053F3
:10117000C36012684FF4E05303EAD20202610448EC
:10118000006800F00700086070470000083802405F
:10119000003C02400448054900680968044AC1F35C
:1011A0008221515CC840704710000020083802407E
:1011B000184400080448054900680968044AC1F356
:1011C0004231515CC840704710000020083802408E
:1011D00018440008154810B5006810F00C021448B7
:1011E00013D01449042A0FD0082A0ED10F4C241F03
:1011F0002268236802F03F025B0207D52068C0F333
:101200008810A0FB010106E0084610BD2168C1F36B
:101210008811A1FB00010023FFF78AF82168C1F3C0
:101220000141491C4900B0FBF1F010BD08380240F3
:101230000024F40040787D012DE9F84F04006ED0C1
:101240002078DFF84C93C007A9F104054AD009F1D2
:1012500004000168C1F38101012908D00068C0F3CE
:10126000810002280AD1D9F80000400206D528687A
:10127000800337D560680028E1D033E06068B0F5BE
:10128000803F10D0B0F5A02F286810D020F4803017
:101290002860286820F4802028606068A8B1FFF7E3
:1012A000F5FD06460DE0286840F48030F4E740F490
:1012B00080202860F7E700BFFFF7E8FD801B642867
:1012C00073D828688003F7D50CE0FFF7DFFD0646EA
:1012D00005E000BFFFF7DAFD801B6428F0D828681E
:1012E0008003F7D42078DFF8AC8280074FF0000A43
:1012F0003ED5A748001D016811F00C0F08D000680A
:10130000C0F3810002280BD1D9F80000400207D4B5
:101310002868800716D5E068012800D112E033E183
:10132000E068B8B10120C8F80000FFF7AFFD06463D
:1013300005E000BFFFF7AAFD801B0228C0D828687F
:101340008007F7D52868216920F0F80040EAC1003D
:1013500028600DE0C8F800A0FFF798FD064604E0FD
:10136000FFF794FD801B02281FD828688007F7D458
:101370002078000722D5864F87486169703771B1A0
:1013800001210160FFF782FD064604E0FFF77EFDC4
:10139000801B022809D838688007F7D50EE0C0F80E
:1013A00000A0FFF773FD064605E082E0FFF76EFD43
:1013B000801B02287DD838688007F7D42078400742
:1013C00068D5DFF8CCB100270BF13C0BDBF800004F
:1013D000C0000BD4DBF8001041F08051CBF80010B6
:1013E000DBF80000012700F0805000906B4E306861
:1013F000C00510D4306840F480703060FFF746FDBF
:10140000009005E0FFF742FD0099401A022850D8ED
:101410003068C005F6D55E4EA0686C3601280FD046
:101420000528306810D020F001003060306820F0CE
:1014300004003060A068B8B1FFF728FD00900FE00D
:10144000306840F00100F4E740F004003060F7E756
:10145000FFF71CFD0099411A41F28830814266D89D
:1014600030688007F4D50EE0FFF710FD009007E02C
:10147000FFF70CFD0099411A41F28830814256D89D
:1014800030688007F4D42FB1DBF8001021F08051D0
:10149000CBF80010A069C8B33D49091D0968C1F324
:1014A000810102294AD00228504607D0C8F86000BE
:1014B00000E03CE0FFF7EAFC04463BE04746C8F8A2
:1014C0006000FFF7E3FC064605E000BFFFF7DEFC27
:1014D000801B02282BD828688001F7D4D4E90701A3
:1014E0000843A16A2E4A490802EB0141626A41EAB7
:1014F0008211084394F82C1040EA0161C9F80010E9
:1015000001203866FFF7C2FC044606E03EE000BF5B
:10151000FFF7BCFC001B022809D828688001F7D51A
:1015200034E000BFFFF7B2FC001B022802D9032001
:10153000BDE8F88F28688001F4D427E00128F7D0AF
:10154000D9F80000E26900F4800191421CD1226ABE
:1015500000F03F01914217D147F6C071626A014025
:10156000B1EB821F10D1A26A4FF0FF3300F440317B
:1015700003EB5202B1EB024F06D194F82C1000F0AD
:101580007060B0EB016F01D00120D1E70020CFE700
:101590000438024000004742800E4742007000407D
:1015A0000000FFFF7047704710B5040003D094F8A7
:1015B0003D0010B107E0012010BD002084F83C0080
:1015C000204600F01EF8022084F83D00211D20680E
:1015D00000F070FD012084F8460084F83E0084F895
:1015E0003F0084F8400084F8410084F8420084F809
:1015F000430084F8440084F8450084F83D0000204E
:1016000010BD704790F83D10012901D001207047AE
:10161000022180F83D100168CA6842F00102CA60E8
:1016200000681149884214D0B0F1804F11D00F49A1
:1016300088420ED00E4988420BD00E49884208D00D
:101640000D49884205D00D49884202D00C49884294
:1016500004D1816801F00701062903D0016841F037
:1016600001010160002070470000014000040040BB
:1016700000080040000C0040000401400040014010
:101680000018004070472DE9F04104460068C66824
:1016900005694FF00007A90713D5B10711D5F91E49
:1016A000016101202077206880698007204602D0F0
:1016B000FFF7E8FF04E000F07EF8204600F07CF839
:1016C0002777680716D5700714D521686FF00400D6
:1016D0000861022020772068806910F4407F20464E
:1016E00002D0FFF7CFFF04E000F065F8204600F0DD
:1016F00063F82777280715D5300713D521686FF0D1
:1017000008000861042020772068C069800720460F
:1017100002D0FFF7B7FF04E000F04DF8204600F0DC
:101720004BF82777E80616D5F00614D521686FF038
:1017300010000861082020772068C06910F4407FFD
:10174000204602D0FFF79EFF04E000F034F8204668
:1017500000F032F82777E80708D0F00706D02168B4
:101760006FF001000861204600F028F8280608D52F
:10177000300606D521686FF0800008612046FFF72B
:1017800011FF680608D5700606D521686FF0400085
:101790000861204600F01CF8A8060AD5B00608D556
:1017A00021686FF0200008612046BDE8F041FFF796
:1017B000FABEBDE8F0817047704700000068034939
:1017C000884201D1FFF768BB70470000000001406C
:1017D0007047704770470000F8B501680446086814
:1017E000CA684B6910F00F0F4FF0000559D003F095
:1017F000010602F49077374365D0C10705D0D105C3
:1018000003D5616C41F001016164410705D5D90739
:1018100003D0616C41F002016164810705D5D907ED
:1018200003D0616C41F004016164010707D502F047
:101830002001314303D0616C41F008016164616CA7
:1018400000293AD0800604D5900602D5204600F043
:10185000C7FC20684069616CC0F38010090700D4A0
:1018600060B3204600F095FC20684069400621D511
:101870002068143050E8001F21F0400140E80012B9
:10188000002AF5D1E06BA8B172490165E06BFFF762
:10189000B9F8002811D0E06B016D01B0BDE8F0404F
:1018A000084783060FD593060DD52046BDE8F840BE
:1018B00000F096BC2046FFF78DFFF8BD2046FFF7ED
:1018C00089FF6564F8BD266B2023012E7ED1C606F4
:1018D0007CD5D6067AD508684868009048694FF0EC
:1018E000020640064DD5E26B106840684FF48077E1
:1018F0000004000C3AD0A18D814237D9E085D0692F
:10190000B8422DD020680C3050E8001F21F48071BF
:1019100040E80012002AF5D12068143050E8001F7A
:1019200021F0010140E80012002AF5D120681430AE
:1019300050E8001F21F0400140E80012002AF5D1D4
:1019400084F84230256320680C3050E8001F21F0F5
:10195000100140E80012002AF5D1E06BFFF709F80A
:101960006663A08DE18D401A81B206E0A18D8142AF
:10197000A8D1D069B842A5D166632046FFF729FFF8
:10198000F8BDA08DE18D401A81B2E08D0028F7D01E
:101990000029F5D020680C3050E8002F22F4907216
:1019A00040E80027002FF5D12068143050E8002FC0
:1019B00022F0010240E80027002FF5D184F84230E0
:1019C000256320680C3050E8002F00E006E022F08C
:1019D000100240E80023002BF3D1CDE705062BD5FC
:1019E000150629D594F841002128C9D1A068B0F581
:1019F000805F01D12069B0B1206A411C2162216859
:101A000000784860E08C401E0004000CE084B7D1F0
:101A10002068C16821F08001C1602068C16841F080
:101A20004001C160F8BD206A0088C0F3080048602A
:101A3000206A801C2062E5E74006F3D55006F1D508
:101A4000CA68204622F04002CA6084F8413000F0A3
:101A5000F8F8F8BD8521000870B5040004D094F8AA
:101A60004100002510B106E0012070BD84F840500F
:101A7000204600F023F8242084F841002068C16843
:101A800021F40051C160204600F00CFC206801697F
:101A900021F4904101612068416921F02A014161EE
:101AA0002068C16841F40051C1606564202084F859
:101AB000410084F842006563002070BD2DE9F041CB
:101AC00086B0064614216846FEF71BFE2F49306893
:101AD000884258D12E480024016841F40031016049
:101AE000006800F40030059029481038016841F082
:101AF000010101600068694600F0010005900C20BA
:101B000000900220CDE901040320039007200490F7
:101B10002048FFF7C3F8214D1F484FF000672860A9
:101B2000C5E901744FF48068C5E903486C61AC6194
:101B3000EC612C6228466C62FFF746F808B1FEF7AC
:101B400016FFF563AE63154D134860351830E5E8B0
:101B500002074020A5E81101104845F814496030FB
:101B6000AC61EC612C626C62FFF72EF808B1FEF7F5
:101B7000FEFEB563002205212620AE63FFF71EFAA4
:101B80002620FFF70DFA06B0BDE8F08100440040C2
:101B900040380240000002408860024038030020C4
:101BA00070472DE9F843044690F8410098461646E0
:101BB0000D46202802D00220BDE8F88385B17EB111
:101BC00000206064212084F84100FFF75FF9A684BB
:101BD0008146E684A0682027B0F5805F02D003E04C
:101BE0000120E9E7206910B12E4600250EE000260D
:101BF0000CE08021204600F0DBFBA8B9C6B116F846
:101C0000010B21684860E08C401EE084E08C4B466C
:101C10004FF00002CDF800800028EAD14FF04001DB
:101C2000204600F0C5FB40B184F841700320C3E7B3
:101C300035F8020BC0F30800E3E784F84170002098
:101C4000BAE77047FEE7000010B504462DED068B9D
:101C50009FED4F9ADFED4F9A90ED040B53EC102B54
:101C600051EC100B02F05AF994ED020B41EC180BF9
:101C700053EC102B51EC100B02F050F953EC182BD5
:101C800002F064F802F030F800EE100A00F046FFAF
:101C9000F0EE408A94ED060B9FED3F1B51EC100BCC
:101CA00053EC112B02F038FA02F01EF828EEA80AC5
:101CB00008EE100A08EE080A00F030FFDFED380ADF
:101CC000F4EEC00AF1EE10FA07D220EEA81A60EE88
:101CD000880AC1EE008A80EE808ADFED320A9FED2D
:101CE000321A48EEE80A48EE480A80EE810AB7EE5A
:101CF000001AFFEE000A01F017F800F0BDFBB0EE8D
:101D000040AAF0EE680AB0EE480A00F041FCB0EEDE
:101D1000408AB0EE4A0A00F091FD09EE809AB0EEDA
:101D20004A0A00F033FE20EE290AF0EE490A00F0DC
:101D30002FFCF0EE400A1D4938EE600ADFED1C0A68
:101D4000D1ED011A1B489FED1C2A40EE201ADFED51
:101D50001B2AB0EE421AC0ED011A91ED020A0AEEFA
:101D6000200AF0EE620A80ED020AB0EE610A00F08D
:101D7000DBFF80ED010AB0EE421AF0EE620A90ED50
:101D8000020A00F0D1FF80ED020ABDEC068B10BD07
:101D90009A99193ECDCC4C3D000000A09999A93FDD
:101DA000CDCC4C3ECDCCCC3C90C2753C30410020DB
:101DB000E12E65427C00002000003443000000005A
:101DC00010B504462DED028B90ED020B51EC100B7B
:101DD00001F08AFF94ED040B08EE100A51EC100B91
:101DE00001F082FF00EE100AF0EE480A00F0D0FB8E
:101DF0000D48DFED0E0A9FED0F1AD0ED001A0C48CA
:101E000040EE201ADFED0C0AC0ED001AB0EE610AB8
:101E100000F08AFF80ED000A2046BDEC028BBDE891
:101E20001040FFF711BF000030410020E12E654255
:101E30007C00002000008743000000000D4808B52A
:101E4000016841F4001101600068002200F40010F4
:101E5000009005211020FFF7B1F81020FFF7A0F83F
:101E6000002205211120FFF7A9F8BDE80840112044
:101E7000FFF796B83038024000B587B01C220649FB
:101E80006846FEF70CFC0021684601F063F8034940
:101E9000086007B000BD0000E44300080000002017
:101EA000094808B5016841F080010160016801F04E
:101EB00080010091016841F001010160006800F0BB
:101EC0000100009008BD0000303802400C4810B5F9
:101ED0000A4901604FF4E1314160002181600C2228
:101EE000C160C0E904128161C161FFF7B5FD00283E
:101EF00003D0BDE81040FEF73ABD10BD00440040DD
:101F0000F0020020FEE7FEE72DE9F047A8B00D46FD
:101F1000060002D00DB1102D03D9012028B0BDE874
:101F2000F08742F20F70824200D902469246802228
:101F30001B496846FEF7B3FB202120A8FEF7E1FB12
:101F400000244FF4FA7840F6C4191AE006EB84171F
:101F500097ED020B51EC100B01F0A0FF83B243454B
:101F600001D2434602E04B4500D94B463A780DA1D9
:101F700020A8FEF755FA20A96846FEF784FB641CEA
:101F8000E4B2AC42E2D3524609A120A8FEF748FAD7
:101F900020A96846FEF777FB684600F00DF8BDE71C
:101FA000204400082530337550253034750000007A
:101FB000542530347521000010B504000DD0FEF713
:101FC00043FB50B12046FEF73FFB214682B2BDE8FD
:101FD000104064230248FFF7E4BD012010BD00005B
:101FE000F002002001F0D8FA012000F0A7FFF9E785
:101FF00010B5502080F31188BFF34F8FBFF36F8F60
:1020000001F0AAFD18B104494FF08050086000208B
:1020100080F3118810BD000004ED00E010B592B00F
:1020200030216846FEF76DFB14210CA8FEF769FB12
:1020300017480024016841F080510160006800F0F9
:10204000805011901348016841F48041016000689C
:10205000069400F48040119002200090012003902B
:10206000102004906846FFF7E7F808B172B6FEE763
:102070000F20CDE90C040E940F9400210CA81094AD
:10208000FEF7CEFF002801D072B6FEE712B010BDF9
:1020900040380240007000400248016841F470017D
:1020A0000160704788ED00E00148FFF7ECBA0000DE
:1020B000F8030020F0B50268274B284D284E294F21
:1020C000294C4FF0804C984209D0604507D0A84277
:1020D00005D0B04203D0B84201D0A04204D122F0D2
:1020E000700E4A6842EA0E0298421BD0604519D031
:1020F000A84217D0B04215D0B84213D0A04211D098
:102100001A4DA8420ED01A4DA8420BD0194DA84224
:1021100008D0194DA84205D0184DA84202D0184D3C
:10212000A84203D122F44075CA682A434D6922F0BF
:1021300080022A438D68C5620D688562984201D08D
:10214000A04201D109690163016841F00401016005
:10215000012141610260F0BD000001400004004027
:1021600000080040000C0040000401400040014015
:10217000004401400048014000180040001C00409D
:102180000020004010B5806B0021C185FFF722FBC5
:1021900010BD01680C3151E8002F22F4907241E823
:1021A0000023002BF5D10168143151E8002F22F0F3
:1021B000010241E80023002BF5D1016B012909D16F
:1021C00001680C3151E8002F22F0100241E8002391
:1021D000002BF5D1202180F84210002101637047C7
:1021E00008B590F84210222901D0022008BD82686B
:1021F0004FF480539A4201D1016921B1816A9A4218
:102200001BD04AB10AE00268816A5268C2F3080230
:102210000A80816A891C08E0026972B1026852680A
:1022200002F07F020A70816A491C8162C18D491ED9
:102230000904090CC18503D01BE002685268F1E76C
:102240000168CA6822F02002CA600168CA6822F4E4
:102250008072CA6001684A6922F001024A61202145
:1022600080F8421000214163026B012A03D0FFF77E
:1022700097FC002008BD016301680C3151E8002F74
:1022800022F0100241E80023002BF5D101680A6812
:10229000D20602D50A6849680091818DFFF799FA44
:1022A000E7E7000070B5044600680169E26821F4C0
:1022B0004051114301612169A068E26908436169E5
:1022C000114308432168CA6849F20C639A430243E8
:1022D000CA6020684169A26921F4407111434161DB
:1022E00031492068884202D03049884202D1FEF745
:1022F00061FF01E0FEF74EFFE2690023192164252A
:102300003226B2F5004F626828D0A0FB0101930F7E
:102310009200FEF70DF80146B0FBF5F06FF01802E1
:10232000504301EB800006EB0010B0FBF5F000F02D
:10233000F002B1FBF5F002EB0012B1FBF5F06FF02B
:102340001803584301EB800006EB0010B0FBF5F0DA
:1023500000F00F0021681044886070BDA0FB0101EF
:1023600092185B41FDF7E4FF0146B0FBF5F0020176
:10237000B1FBF5F06FF01803584301EB800006EB5A
:10238000C000B0FBF5F000F0F80002EB4002B1FB3A
:10239000F5F0584301EB800006EBC000B0FBF5F010
:1023A00000F00700D6E700000010014000140140D3
:1023B0002DE9F843984617460D460446089E24E04A
:1023C000701C22D0FEF762FDA0EB0800B0421AD8C4
:1023D000CEB12068C168490717D5802D15D0402D92
:1023E00013D00168C94309070FD40168002540686C
:1023F00000902046FFF7CDFE0820606484F840502E
:102400000120BDE8F8830320FBE72068006835EA77
:10241000000004D00020B842D2D00020F1E7012013
:10242000F9E700000148FFF7D7B90000F0020020EB
:10243000FEE74100080218BF04200A0E18BF40F052
:1024400001004FF07F4232EA010108BF40F0020074
:10245000012808BF052070470907090E002804DB82
:1024600000F1E02080F80014704700F00F0000F148
:10247000E02080F8141D704710B510EE104A4FF0A0
:102480001A402DED028B00EB4400B0F1C85F4AD832
:102490004FF0FC40B0EB440F22D2B0EEC00AF7EE92
:1024A000000A30EEC00AF6EE000A20EE208A18EE8E
:1024B000100A00F0DFFF00EE100A14F0004F1DBFFD
:1024C0009FED281ADFED280AB1EE400A9FED271A8A
:1024D00008BFF0EE410AF8EE001A20EE210A05E0EE
:1024E00020EE008A9FED221ADFED220ADFED221A8C
:1024F0009FED222A70EEC00A20EE080A08EE212A7B
:10250000DFED1F1A48EE021A9FED1E2A08EE212A5F
:10251000DFED1D1A48EE021ABDEC028B40EE610A97
:1025200030EE810A10BD4FF0CC40B0EB440F82BFBB
:102530009FED160ABDEC028B10BD4FF07F40B0EB53
:10254000440F05D2BDEC028BBDE8104000F003BB88
:102550000120FEF705F9BDEC028BBDE8104000F04C
:1025600001BB00000000494022AA7D3A00000000A3
:102570000000C93F22AAFD3924FE1C3DC78AD83C71
:102580001E67383D1B93993DAFAA2A3EDB0FC93F1A
:1025900070B54FF068422DED048BF0EE408A18EED6
:1025A000900AB0EE608A18EE101A02EB4003B3F105
:1025B000654F3CBF02EB4102B2F1654F7DD200BFD7
:1025C000C0F3C753C1F3C7529A1A1B2A09DD10F092
:1025D000004F14BF9FED830A9FED830ABDEC048B6F
:1025E00070BD12F11A0F36DA11F0004F09D010F059
:1025F000004F0CBF9FED7D0A9FED7D0ABDEC048B63
:1026000070BD88EE889A19EE100AFFF712FF0428B1
:1026100008BF00F0AFFA18EE900AFFF70AFF054670
:1026200018EE100AFFF705FF044619EE100AFFF72F
:1026300000FF042D18BF052D08D1042C18BF052C50
:1026400004D1002804BF0220FEF78AF8B0EE490A40
:10265000BDEC048B70BD4200B2EB410F3AD910F0D3
:10266000004F19BFDFED630A9FED630ADFED630AD8
:102670009FED630AB0EE481A0A46B1EE688A80F010
:102680000041F0EE418A10460A1A5200B2F1807FF2
:1026900034D2484010F0004FDFED5A1A9FED5A2A0D
:1026A0001DBFBEEE001A70EEE10A30EE420AB6EE31
:1026B000001A08BF70EEA10A00E040E008BF30EE4B
:1026C000020AB0EE682A01EE482A08EE818AC2EEBC
:1026D000081A15E011F0004F04BF9FED4C0AF0EE10
:1026E000400AD1D010F0004F19BFDFED490A9FED2D
:1026F000490ADFED490A9FED490AC5E7C8EE881A85
:1027000021EEA11A9FED462ADFED462A41EE022A6C
:102710009FED452A01EE222ADFED442A41EE022AEE
:102720009FED432ABDEC048B01EE222A21EE811A93
:1027300001EE020A30EE210A30EE200A70BD4FF0A1
:102740007F42B2EB400F28BFB2EB410F09D2F0EE4F
:10275000480AB0EE680ABDEC048BBDE8704000F09A
:10276000FDB940EA01035B0008BF41F0FF410BD017
:10277000B2EB400F08BFB2EB410F08D120F0804010
:1027800008EE900A21F0804108EE101A18E7B2EB2B
:10279000400F12BF5FEA410340F0FF4001F00041EB
:1027A0003FF40EAFB2EB410F12BF5FEA400200F000
:1027B000004041F0FF413FF403AF4A0092EA40037A
:1027C0003FF5FEAE002AACBF9FED1A0A9FED1A0A34
:1027D00068EE808A28EE008A18EE900A18EE101A29
:1027E000EEE60000DB0FC9BFDB0FC93FDB0F49403E
:1027F000DB0F49C00000C9BF22AAFDB90000C93FD4
:1028000022AAFD390060ED3EC30ACE370000000069
:10281000000049C022AA7DBA0000494022AA7D3AA0
:102820002DAD65BD8FB8D53D0FB511BE61C84C3E0D
:10283000A8AAAABE0000804F0000802F10EE101A38
:1028400008B5444A6846B2EB410F28D94FF0E6403C
:10285000B0EB410F94BF00204FF0FF300090009884
:10286000002861DB60EE000A10F0010F45D010F087
:10287000020FDFED391A9FED391A00EEE11ADFED94
:10288000381A40EE811A21EEA01AF0EE400A40EE0E
:10289000010A08BFF1EE600AB0EE600A08BD314BD4
:1028A00021F0004293423CD911F0004FDFED2E0A97
:1028B00020EE201ADFED2D0A19BF31EE601A71EEFD
:1028C000200A31EE201A71EE600ABDEEE01A11EE18
:1028D000100A9FED271A00F0030000EEC10A9FEDD9
:1028E000251A009000EEC10A9FED231A00EEC10ADE
:1028F0009FED221A00EEC10AB1E79FED211A9FED6C
:10290000210A10F0020F00EE810A9FED1F1A00EE5F
:10291000801AB7EE000A00EE810A18BFB1EE400A35
:1029200008BD00F02FF99AE710EE100A4000B0F150
:102930007F4F3CBFB7EE000A08BD07D14FF0010042
:10294000FDF70EFFBDE8084000F00CB9BDE80840F7
:1029500000F001B9B61F927E336D4C39DA82083C23
:10296000A0AA2ABE490E494683F9223F0000004B27
:102970000000C93F00A0FD390020A2331A61342CA9
:10298000B93AB2BACA9F2A3DDDFFFFBE00B510EECC
:10299000101A2DED028B81B0524A6846B2EB410FFE
:1029A0002ED94FF0E640B0EB410F94BF00204FF01E
:1029B000FF3000900098B0EE408A00286ADB10F0EB
:1029C000010F4BD068EE080A9FED471A9FED470AAA
:1029D00000EE810A9FED461A10F0020F00EE801AF9
:1029E000B7EE000A00EE810A02BF01B0BDEC028B17
:1029F00000BD00BF01B0B1EE400ABDEC028B00BDCE
:102A00003C4B21F00042934241D911F0004FDFEDE1
:102A10003A0A20EE201ADFED390A19BF31EE601AAA
:102A200071EE200A31EE201A71EE600ABDEEE01A56
:102A300011EE100A9FED321A00F0030000EEC10AF9
:102A40009FED301A009000EEC10A9FED2F1A00EEA4
:102A5000C10A9FED2E1A00EEC10AABE728EE080A64
:102A60009FED2B1ADFED2B0A10F0020F40EE410A0A
:102A70009FED291A00EE201A61EE000AB0EE480A16
:102A800008EE200AB6D101B0BDEC028B00BD00F00B
:102A900079F88FE718EE100A4000B0F17F4F0DD2A1
:102AA00018EE100AFFF7C5FC042808BF00F062F812
:102AB000B0EE480A01B0BDEC028B00BD09D1012087
:102AC000FDF74EFE01B0BDEC028B5DF804EB00F0AB
:102AD00049B801B0B0EE480ABDEC028B5DF804EBDA
:102AE00000F039B8B61F927EB93AB2BACA9F2A3DF1
:102AF000DDFFFFBE490E494683F9223F0000004B2F
:102B00000000C93F00A0FD390020A2331A61342C17
:102B1000336D4C39DA82083CA0AA2ABE10B52DEDDF
:102B2000028BB1EEC08A18EE100A20F00040C0F10E
:102B3000FF40C00F0AD010EE100A20F00040C0F194
:102B4000FF40C00F04BF0120FDF70AFEB0EE480AA7
:102B5000BDEC028B10BD30EE000A704730EE200A4B
:102B600070470000DFED020A80EEA00A7047000007
:102B7000000000009FED020A20EE000A70470000EE
:102B8000000000102DE9F0014FF07F42B2EB410F41
:102B90009FBF4FF0FF310160BDE8F00170474FF07B
:102BA000004242EA0123C1F3C752783A551112F0AC
:102BB0001F0C434CCCF120067C44C1F3C752A2F158
:102BC00078024FEA621204EB820254F8254008BFF3
:102BD000D2E9015612D0556804FA0CF425FA06F72A
:102BE0003C43976805FA0CF527FA06F8D26807FA0D
:102BF0000CFCF24045EA08054CEA0206A4FB034C33
:102C0000A5FB0352A6FB03631D449D4234BF01266E
:102C100000261319334416B1934202D903E09342BC
:102C200001D2012200E00022624402F1200C92064F
:102C3000DC0C42EA443200EE102A5B03DFED210A8D
:102C4000F8EEC01A00EE103A4FEA9C1C11F0004F4B
:102C5000B8EE400AC0F800C020EE201A00EE105A6C
:102C6000DFED190AB8EE400A20EE200A71EE810A63
:102C700070EE800A10EE902A02F500626FF30B02EC
:102C800000EE902A70EEE11A31EEC11ADFED101A53
:102C900030EE411A9FED0D0A20EE800A01EE210A66
:102CA0009FED0C1A00EE810A04BFBDE8F0017047E9
:102CB000CCF180510160BDE8F001B1EE400A7047EF
:102CC000F8180000000000360000802C22AAFD2920
:102CD000DB0FC92F0000C92F30380A2801D201208C
:102CE000704700207047000000B59FED091ADFED26
:102CF000090A00F019F89FED081ADFED080A40EE06
:102D0000010ABCEEE00A10EE100A80B200BD00001D
:102D100000008743000000002506ED400000FA4354
:102D20000A2000F00BF9FBE7B4EEE00AF1EE10FA2E
:102D300002D2B0EE600A7047B4EEC10AF1EE10FAAA
:102D4000F9DDB0EE410A7047322000F0F7F8FBE7FA
:102D500070B50E462DED068B0546F0EE629AB0EE8C
:102D600042AAF0EE61AAB0EE418AF0EE608AB0EEBF
:102D7000409A012427E000BF00EE104AB0EE493A25
:102D800079EEC81AF8EE400A00EE105A3046B8EE56
:102D9000401A80EE810A7AEEC90A3AEE681A00EE0D
:102DA000203AF0EE680A40EE010AB0EE481A00EE52
:102DB000211AB0EE430A00F08BF806F1140000F07F
:102DC000BDF8641CE4B2AC42D6D9BDEC068B70BD34
:102DD000FEF76AF8FFF722F9FFF762F8FFF72EF81F
:102DE000FFF774F8FFF748F800F0AFF8FEE70000CF
:102DF0002DED048B44F6206000F0A0F89FED2D8AA5
:102E0000DFED2D8A40F2DC50B0EE480AF0EE680AA1
:102E1000B0EE401A00F05CF84FF4FA6000F08EF863
:102E20009FED269ADFED269A4FF4FA7464210A206A
:102E3000F0EE482AB0EE682AF0EE491AB0EE481AD1
:102E4000F0EE680AB0EE480AFFF782FF64210A201C
:102E5000F0EE482AB0EE692AF0EE491AB0EE481AB0
:102E6000F0EE680AB0EE490AFFF772FF64210A200B
:102E7000F0EE482AB0EE692AF0EE481AB0EE481A91
:102E8000F0EE690AB0EE490AFFF762FF64210A20FA
:102E9000F0EE482AB0EE682AF0EE481AB0EE481A72
:102EA000F0EE690AB0EE480AFFF752FF204600F044
:102EB00045F8BBE7CDCCCC3DCDCC4CBDCDCC4C3ECC
:102EC000CDCC4C3D01460020842900D0C81C704761
:102ED00010B504462DED028B90B0B0EE418AF0EEB5
:102EE000608A10EE100A01F001FACDE9020118EE35
:102EF000900A01F0FBF9CDE9040118EE100A01F087
:102F0000F5F9CDE90601ADF838406846FEF758FFFF
:102F10000749204691ED001A0649D1ED000A0649FD
:102F200091ED000A00F06EFA10B0BDEC028B10BDFE
:102F300084000020800000207C00002010B500B933
:102F4000012000F04FFC002010BD10B500F0C6FCC1
:102F5000002010BD7FB50D4604464169B0F9080058
:102F600081B1A16971B1FFF7ADFFD4E905128DE818
:102F70000700D4E900102B46226900F0C2FD03903F
:102F800004B070BDFFF79EFF03A9CDE90001208AC0
:102F90002B4682B2D4E9001000F086FD012801D052
:102FA0000020EDE70398EBE72DE9F041184C0F46C0
:102FB0000546E6682068001D00F04CFB38B9206823
:102FC00090F82C1001208840216981432161681C00
:102FD00007D137B12168BDE8F0410E48091D00F066
:102FE0007DBB20683544B5424560216805D2A06BA1
:102FF000BDE8F041091D00F059BB606B091D00F0F0
:1030000055FBA06A854200D2A562BDE8F0810000B0
:10301000140000201C0500202DE9F041054600F0B9
:1030200069FB2E4CA068401CA06020682C4F10B19A
:10303000606940B32DE02560A068012829D10026F1
:1030400006EB860007EB800000F022FB761C072EC3
:10305000F6D323488C3000F01BFB2148A03000F051
:1030600017FB1F48B43000F013FB1D48C83000F0B8
:103070000FFB1B48DC3000F00BFB19488C30606301
:103080001430A06305E02068E96AC06A884200D86D
:103090002560606A401C6062E96A012022698840FC
:1030A0001043206101EB810007EB8000291D00F037
:1030B00015FB00F03FFB606900280CD02068E96A2E
:1030C000C06A884207D207494FF080500860BFF3BA
:1030D0004F8FBFF36F8FBDE8F08100001400002018
:1030E0004004002004ED00E010B5044690F85100C3
:1030F00058B101280CD002280FD0502080F311883D
:10310000BFF34F8FBFF36F8FFEE7206B00F026FBFE
:103110002046BDE8104000F021BB10BD10484FF420
:103120007051420706D0C01D0D4920F00700411A1A
:10313000C1F570510B4A00230144C2E9000308396C
:10314000183A21F0070111604B600B600B1AC0E9BF
:10315000001393604FF000405360506170470000CF
:103160003005002068000020144E154CA6F1C80759
:103170004FF08058DFF84C9012E000BF00F0BAFA30
:10318000F068C568281D00F065FAA068401EA060C0
:103190006068401E606000F0CDFA2846FFF7A4FF8B
:1031A00060680028EAD138680128F9D9C9F8008098
:1031B000BFF34F8FBFF36F8FF2E7000008050020C9
:1031C0001400002004ED00E02DE9F0479A46DDE907
:1031D000098481466FF00303206B03EB82021044E5
:1031E000089E20F00707780707D0502080F3118849
:1031F000BFF34F8FBFF36F8FFEE7002561B1002053
:1032000023180A5C83F834200A5C12B1401C102891
:10321000F6D384F8435001E084F83450072E00D3ED
:103220000626E662C4E91165201D00F03CFA04F1AF
:10323000180000F038FA2461C6F107006462A0614A
:10324000E56484F8505052464946384600F0C0F8CC
:103250002060B8F1000F01D0C8F80040BDE8F08749
:1032600030B5114900E011460A688242FBD34B6831
:103270005C18844203D1406818444860084643689B
:103280001C18944209D1084C183C2468A24209D069
:1032900052681A4442600A6812680260814200D093
:1032A000086030BD0460F9E7680000200648416B03
:1032B000096829B1416BC968C9684968816270476A
:1032C0004FF0FF31FAE70000140000200848406882
:1032D000401C4FF0500080F3118804D0BFF34F8F93
:1032E000BFF36F8FFEE7BFF34F8FBFF36F8FFEE724
:1032F000700000202DE9F0410546002700F024FB76
:10330000324E306808B9FFF709FF706905424ED1A7
:10331000C5B3083568070ED005F00700C0F10800F6
:103320000544680707D0502080F31188BFF34F8F02
:10333000BFF36F8FFEE72DB37068854237D82348FF
:10334000183001460C6801E020460C466168A9422D
:1033500002D221680029F7D131688C4227D0076852
:103360002168016060680837411B10290FD9601976
:10337000420708D0502080F31188BFF34F8FBFF36E
:103380006F8FFEE713E041606560FFF769FF6168DA
:103390007068401A7060B268904200D2B060706984
:1033A00001430020C4E90001F068401CF06000F017
:1033B00039FC780707D0502080F31188BFF34F8F76
:1033C000BFF36F8FFEE73846BDE8F0815000002064
:1033D00010B5031F4FF080741C601B1F21F001010A
:1033E0001960191F044B0B6014390A60091F6FF034
:1033F000020244380A6010BDCD3200081420FFF7E5
:103400009DFDFBE770B51A4C05462DED028B0120A2
:10341000B0EE418AF0EE608A2070FFF765FC00F0A4
:103420006AFDC4E902012587022084F84000B0EE5D
:10343000680AFFF759FC00F05EFDC4E91201A4F828
:103440007850032084F88000B0EE480AFFF74CFC67
:1034500000F051FDC4E92201A4F8B8502A46BDECA1
:10346000028B2046BDE870400321FEF74DBD0000F1
:103470004041002010B500EE100A2DED028BB1EE98
:10348000C08A18EE100A20F00040C0F1FF40C00FC3
:103490000AD010EE100A20F00040C0F1FF40C00F2B
:1034A00004BF0120FDF75CF918EE100ABDEC028B99
:1034B00010BD000070B54FF4FA702DED028BFFF7D0
:1034C0003DFD9FED328A4FF47A70B0EE481AF0EE6F
:1034D000480AB0EE480AFFF795FF40F2DC50FFF7CC
:1034E0002DFD4FF4FA642046B0EE481AF0EE480A7B
:1034F0009FED270AFFF786FF40F6C4152846FFF721
:103500001DFD2046B0EE481AF0EE480AB0EE480A1B
:10351000FFF778FF2846FFF711FDDFED1E8A2046F2
:10352000B0EE481AF0EE680AB0EE480AFFF76AFFFC
:103530002846FFF703FD2046B0EE481AF0EE480A91
:10354000B0EE480AFFF75EFF2846FFF7F7FC20467B
:10355000B0EE681AF0EE480AB0EE480AFFF752FFE4
:103560002846FFF7EBFC2046B0EE481AF0EE480A7A
:10357000B0EE480AFFF746FF2846FFF7DFFCBDEC38
:10358000028B0020BDE8704000F052B9000000003E
:1035900000008743000034437CB500F0ABF80424FE
:1035A0001B48A501CDE9004000232A4619A11B486C
:1035B00000F07AFA16490520091DCDE90001002323
:1035C0002A4617A1184800F06FFA11480023083066
:1035D000CDE900402A4615A1174800F065FA0C49CC
:1035E00002200C31CDE900010202002313A115488D
:1035F00000F05AFA064800231030CDE9004080223E
:1036000011A1134800F050FABDE87C4000F092B8D8
:10361000880000207374617274000000B5340008E3
:103620006D61696E00000000F12D000861726D5F30
:10363000636F6E74726F6C00212D0008636F6D6D87
:1036400000000000492D000873656E736F72000062
:10365000FD330008D0E9013201699A60D0E9012305
:103660005A604A68824201D182684A60002202613F
:103670000868401E0860086870470000034B03603C
:1036800003F1540008608020106070479C00002007
:1036900000F108014FF0FF32C0E90112C160016181
:1036A00000210160704700210161704730B50B684F
:1036B0005A1C02D000F1080202E0026904E022462E
:1036C000546825689D42FAD953684B6099608A60B6
:1036D000516008610168491C016030BD42684A6060
:1036E00093688B6093685960916008610168491C18
:1036F00001607047502080F31188BFF34F8FBFF3F4
:103700006F8F0A494868401C486001280CD108485E
:10371000006810F0FF0F07D0502080F31188BFF32E
:103720004F8FBFF36F8FFEE77047000070000020DF
:1037300004ED00E00849486828B1401E486001D106
:1037400080F311887047502080F31188BFF34F8FAA
:10375000BFF36F8FFEE700007000002070B50028F7
:103760002AD0164DA0F1080460686969084207D1A3
:10377000502080F31188BFF34F8FBFF36F8FFEE7A8
:1037800022683AB1502080F31188BFF34F8FBFF306
:103790006F8FFEE78843606000F0D6F86068696864
:1037A000084468602046FFF75BFD2869401C2861DB
:1037B000BDE8704000F036BA70BD00005000002037
:1037C0004FF0E02000210161816105494FF47A72D8
:1037D0000968B1FBF2F1491E41610721016170479F
:1037E0001000002010B5020014D00F48006B38B153
:1037F000502080F31188BFF34F8FBFF36F8FFEE728
:1038000000F0A2F800211046FFF7CEFB00F00AFA04
:10381000002807D105494FF080500860BFF34F8F53
:10382000BFF36F8F10BD00001400002004ED00E016
:1038300070B50546FFF75EFF254C05B92568281DC4
:10384000FFF708FF58B9E86A224A00EB800152F8F6
:10385000211021B901218140206988432061A86A93
:1038600018B105F11800FFF7F5FE606A401C6062B0
:103870002068854208D11748291DC830FFF72EFF60
:103880006068401C606007E0A068401EA060284699
:10389000FFF72AFCFFF70AFDFFF74CFF60690028DD
:1038A00014D02068854211D1206B38B1502080F3AC
:1038B0001188BFF34F8FBFF36F8FFEE706494FF0BC
:1038C00080500860BFF34F8FBFF36F8F70BD000053
:1038D000140000204004002004ED00E010B586B084
:1038E0000024039405AA04A903A80494FFF7C6FEC4
:1038F000DDE903010094CDE9011000230EA1104879
:10390000059A00F0FEF80F490028C86211D0502037
:1039100080F31188BFF34F8FBFF36F8F4FF0FF30ED
:10392000886201204861CC6006B0BDE8104000F01C
:1039300041B806B010BD000049444C4500000000ED
:1039400069310008140000200248016B491C016322
:1039500070470000140000201448016B11B10121D0
:10396000C16170470021C1610169B1FA81F1C1F102
:103970001F0101EB81020E4951F822306BB101EBBE
:10398000820101F108034A6852684A609A4201D1F3
:1039900052684A60D16801607047502080F31188F6
:1039A000BFF34F8FBFF36F8FFEE7000014000020BE
:1039B000400400201CB537480168374A914207D1BE
:1039C000502080F31188BFF34F8FBFF36F8FFEE756
:1039D00000683149491E884207D1502080F3118880
:1039E000BFF34F8FBFF36F8FFEE72C49087801902C
:1039F000FF20087008788DF800009DF800009DF801
:103A0000002000F0F000904207D0502080F3118891
:103A1000BFF34F8FBFF36F8FFEE79DF80000204C80
:103A200000F0500020700720A06005E09DF8002005
:103A300052008DF80020401E9DF800201206F5D49B
:103A4000A060032807D0502080F31188BFF34F8F68
:103A5000BFF36F8FFEE74FF44070A06001980870CD
:103A60000C482030016841F470010160016841F0A8
:103A700070410160FFF7A4FE00206060FCF7FCFBD2
:103A80000848016841F040410160FCF7E1FB00207B
:103A90001CBD000000ED00E071C20F4100E400E039
:103AA0007000002034EF00E02DE9FF5F8346DDE980
:103AB0000E87994616468A469000FFF71BFC0500C4
:103AC0001CD05420FFF716FC040014D000202563FE
:103AD00084F85100CDE90240CDE900874B463246DB
:103AE00051465846FFF770FB2046FFF795FA012034
:103AF00004B0BDE8F09F2846FFF730FE4FF0FF30DE
:103B0000F6E7F0B585B0DDE90B640A9DA6B1DCB13E
:103B1000542700972663022684F85160002604AFDC
:103B2000CDE90246CDE90057FFF74EFB2046FFF7EF
:103B300073FA049805B0F0BD502080F31188BFF3EC
:103B40004F8FBFF36F8FFEE7502080F31188BFF3D4
:103B50004F8FBFF36F8FFEE72DE9F0412F4C00260A
:103B6000206B28B1A069401CA0613046BDE8F081FF
:103B7000E5686D1CE56013D1606B006838B15020BA
:103B800080F31188BFF34F8FBFF36F8FFEE7606B39
:103B9000A16B6163A063206A401C2062FFF786FB73
:103BA000A06ADFF87C80854209D3606B0068A0B111
:103BB000606BC068C7687868854211D2A0622068CF
:103BC000C06A00EB800158F82100012800D90126C5
:103BD000E0690028C9D00126C7E74FF0FF30EDE7C4
:103BE000381DFFF737FDB86A18B107F11800FFF765
:103BF00031FDF96A0120226988401043206101EB00
:103C0000810108EB8100391DFFF768FDF86A216822
:103C1000C96A8842C9D30126C7E700001400002002
:103C2000400400202DE9F0472C4D00242746286B46
:103C300038B1FFF75FFD286B401E2863286B40B149
:103C400046E0502080F31188BFF34F8FBFF36F8F92
:103C5000FEE7A968224E0120D1B3A6F1B40980463F
:103C60003068E8B1F068C46804F11800FFF7F2FCAE
:103C7000201DFFF7EFFCE06A2A6908FA00F1114302
:103C8000296100EB800109EB8100211DFFF726FD72
:103C9000E06A2968C96A8842E2D3C5F81C80DFE778
:103CA0000CB1FFF703FBAC6944B14646FFF754FF84
:103CB00000B1EE61641EF9D10020A861E86938B155
:103CC0000849012738070860BFF34F8FBFF36F8F94
:103CD000FFF730FD3846BDE8F087000014000020F3
:103CE000F404002004ED00E021F00042A2F1605253
:103CF000B2F5801F01F0004328BFD2F17F6C0BD9D1
:103D00005FEA001C43EAC20242EB507018BF7047E2
:103D100028BF20F001007047B2F5801FBCBF1846D5
:103D200070474FEA410C1CF5001F02D2084600F014
:103D300053BB70B500F09CF900000089FFF7F6BF97
:103D40004FF00040A0F580007047000010B591EAE8
:103D5000030F48BF83F0004300F1E681841A71EB42
:103D6000030C05D2121943EB0C03001B61EB0C0191
:103D7000DFF824E14FEA1154A4EB135C1EEA430F71
:103D800018BF9EEA445F73D023EA0E03DCF1200ED5
:103D900021EA045143F4801332D322FA0CFE10EBD3
:103DA0000E0023FA0CFE41EB0E01CCF1200E03FABB
:103DB0000EFE10EB0E0051F10001B1F5801FCCF1A9
:103DC000200E32D201EB045112FA0EF2BDE810407F
:103DD00058BF7047401C38BF5FEA420218BF7047A7
:103DE000002814BF20F0010041F100014FEA410317
:103DF00013F5001F38BF7047A1F1C04100F086B92C
:103E0000012A43EB0302ACF1200CDCF11F0E32BFA0
:103E10004FF0000E23FA0CF310EB030041EB0451BA
:103E2000B4EB115FD0D0A1EB045101F5801149082A
:103E30005FEA300001EB04510ED350F1000038BFAF
:103E400012FA0EFE08D1BDE81040C9E7401C38BF89
:103E50005FEA4202CAD1C3E7BDE810404FEA41031E
:103E600013F5001F38BF7047A1F1C04100F04EB9F3
:103E70009EEA445F08D011EA5E0FBDE8104004BF1F
:103E800001F0004100207047BDE8104070B500F01F
:103E9000EFF800BF64FBBE3E0000E0FF4FEA1153A5
:103EA000A3F58063D3F11E03A8BFD3F1200C08DB78
:103EB0004FF0004242EAC12252EA505232FA03F075
:103EC000704709420BD4102BC4BF0020704703F584
:103ED000787CBCF1FF3F05D04FF0FF3070474FF0CA
:103EE0000000704770B500F0C3F800BF499224800D
:103EF00000207047F0E7B0FA80F310FA03F10AD01F
:103F0000C3F11D0303F580634FEA41504FEA0352AA
:103F100002EBD12170474FF000007047DFF848C135
:103F200070B51CEA111E1EBF1CEA13159EEA0C0F89
:103F300095EA0C0F00F06F8081EA030423EA4C132A
:103F40004EEAD47E21EA4C1141F4801143F48013EF
:103F5000AE44A1FB024CA0FB0365AEF17F7E361997
:103F600055EB0C05A1FB034C4CF10003A0FB021C1C
:103F700016EB0C06654153F10003094218BF46F0E9
:103F8000010613F4007F0BD14FEA03314FEA0530ED
:103F9000340341EA155140EA16506FF003020AE07B
:103FA0004FEAC3214FEAC520F40241EA555140EAE5
:103FB00056506FF0020202EB2E4201EB025585EAE9
:103FC000CE710AD05FEA440C18BF24F0004450F1CF
:103FD000000041F1000120EAD47040F2FE7C62450D
:103FE00000D270BDA84214BF4FF080444FF040444F
:103FF000002E08BF0024BEF1806FA8BFA1F1C04110
:10400000BDE8704080F282804FF0000001F1C041B5
:1040100001F0004170479EEA0C0F0CEA131518BF1F
:1040200095EA0C0F06D04FF0000081EA030E0EF067
:10403000004170BD00F01CF88900013E00F007B897
:1040400000F009B84FEA430C5FEA5C5C08D081EAF3
:10405000030100F05BB84FEA410C5FEA5C5CF6D10B
:104060004FF00000014970470000FF070000F87F93
:104070000EF1020E2EF0030E5EF8046B364205D4EC
:10408000012A43EB030515F5001F12D8012841EB67
:10409000010C1CF5001F0CD80ED14FEAD17C15F590
:1040A000001F0CEB4C0C0CF1020C08BF4CEBD37C4A
:1040B00004E04FF0080C01E04FEAD37C0CEB4C0518
:1040C00026FA05F606F00706B6F1040C06D20EEB4A
:1040D000860CBDE870404CF0010C6047DFE80CF046
:1040E000090B02024FF000414FF00000A1F5002142
:1040F00070BD19461046012851EB010418BFD4F5D4
:10410000001484BF002001F0004170BD0808A0F534
:1041100000114FEA3101704710B591EA030F48BF13
:1041200083F000433FF51AAE841A71EB030C07D2FB
:1041300012198CF0004C43EB0C03001B61EB0C01DB
:10414000DFF8A4E14FEA1154A4EB135C1EEA430F1D
:1041500018BF9EEA445F00F0B08023EA6E0352422B
:1041600021EA0451C3EB6E0338BF5B1EDCF1200E65
:1041700025D322FA0CFE10EB0E0043FA0CFE41EBA5
:104180000E01CCF1200E03FA0EFE10EB0E0051F1E1
:104190000001CCF1200E29D412FA0EF201EB0451E9
:1041A000BDE8104058BF7047401C1CBFB2F1004F23
:1041B000704700280CBF491C20F00100704712EB2B
:1041C000020E43EB030218BF4FF0010E4EEA42020B
:1041D000ACF1200CDCF11E0E54D943FA0CFE10EBAE
:1041E0000E0051F1FF31CCF11E0ED5D50EF1010EAE
:1041F00012FA0EFE404141EB010101EB445C5FEA23
:104200005C5C10D910EBDE7001EB045138BFBEF1DD
:10421000004FBDE8104018BF704700280CBF491C74
:1042200020F00100704730D24FEAD42C11F5001174
:1042300024F400641BD0B1FA81F20B3AA41AA41E34
:10424000D2F12003914030FA03F31943904001EB7F
:10425000CC71002C01EB0451BDE81040A8BF7047A1
:1042600001F1C0414FF0000001F000417047B0FA89
:1042700080F310FA03F100D110BDE41A173C480591
:10428000C90AE4E701EB045110BD491001EB0451E8
:10429000BDE810404FEA300002E04FF000017047E7
:1042A0004A0008BF0042F8D0B2F5001F28BF70478F
:1042B00001F000414FF0000070479EEA445F07D0D4
:1042C00011EA5E0FBDE8104004BF002100207047D6
:1042D000BDE8104070B5FFF7CBFE00BF40DFF63EF3
:1042E00083F00041104670470000E0FF43004FEAB2
:1042F000D30C4FEA3C0C43401FBF40070CF1605108
:1043000013F0FE4F70471CF0006F03D100200CF03B
:10431000004170470CF0004343EA507010B540EA8A
:10432000CC0000F00EF800BF000000924FEA000140
:10433000FFF7ECBE4FF000414FF00000A1F5002167
:1043400070470EF1020E2EF0030E5EF8044B24426D
:1043500004D44FEA4102B2F17F4F11D84FEA400333
:10436000B3F17F4F0CD80ED14FEAD07CB2F17F4F22
:104370000CEB4C0C0CF1020C08BF4CEBD17C04E0B4
:104380004FF0080C01E04FEAD17C0CEB4C0324FA0F
:1043900003F404F00704B4F1040C06D20EEB840C11
:1043A000BDE810404CF0010C6047DFE80CF0070856
:1043B00002024FF00040A0F5800010BD0846420008
:1043C00018BFD2F1807288BF00F0004010BD4FF0DE
:1043D0004070E1EE100A7047FF2141EAD050C0055D
:1043E00070470000D4440008E51F000800000000EA
:1043F000000000008000000000000000000000003D
:104400000006101600061016000000000000000054
:10441000010203040607080900000000010203046A
:104420002300000000000000000000000000000069
:10443000000000000000000000000000000000007C
:10444000000000000000000000000000000000006C
:10445000000000000000000000000000000000005C
:10446000000000000000000000000000000000004C
:10447000000000000000000000000000000000003C
:10448000000000000000000000000000000000002C
:10449000000000000000000000000000000000001C
:1044A00004000008000000000000000200010000FD
:1044B00010000000000000006E83F9A22915444E90
:1044C000D15727FCC0DD34F5999562DB4190433C20
:1044D000AB6351FE64656661756C745461736B0007
:1044E00000450008000000209C000000C4010008F6
:1044F0009C4500089C000020C4470000E001000823
:10450000000000000100000010000000000000009A
:104510000024F40000000000000000000000000083
:10452000000000000000000000000000000000008B
:10453000000000000000000000000000000000007B
:10454000000000000000000000000000000000006B
:10455000000000000000000000000000000000005B
:10456000000000000000000000000000000000004B
:1045700000000000AAAAAAAA000000000000000093
:10458000000000000000000000000000000000002B
:0C4590000000000000000000000000001F
:040000050800018965
:00000001FF
